{
	"StudentData.sol": {
		"StudentData": {
			"abi": [
				{
					"anonymous": false,
					"inputs": [
						{
							"indexed": false,
							"internalType": "uint256",
							"name": "rollNo",
							"type": "uint256"
						},
						{
							"indexed": false,
							"internalType": "string",
							"name": "name",
							"type": "string"
						},
						{
							"indexed": false,
							"internalType": "uint256",
							"name": "marks",
							"type": "uint256"
						}
					],
					"name": "StudentAdded",
					"type": "event"
				},
				{
					"stateMutability": "payable",
					"type": "fallback"
				},
				{
					"inputs": [
						{
							"internalType": "uint256",
							"name": "_rollNo",
							"type": "uint256"
						},
						{
							"internalType": "string",
							"name": "_name",
							"type": "string"
						},
						{
							"internalType": "uint256",
							"name": "_marks",
							"type": "uint256"
						}
					],
					"name": "addStudent",
					"outputs": [],
					"stateMutability": "nonpayable",
					"type": "function"
				},
				{
					"inputs": [
						{
							"internalType": "uint256",
							"name": "index",
							"type": "uint256"
						}
					],
					"name": "getStudent",
					"outputs": [
						{
							"internalType": "uint256",
							"name": "",
							"type": "uint256"
						},
						{
							"internalType": "string",
							"name": "",
							"type": "string"
						},
						{
							"internalType": "uint256",
							"name": "",
							"type": "uint256"
						}
					],
					"stateMutability": "view",
					"type": "function"
				},
				{
					"inputs": [],
					"name": "getTotalStudents",
					"outputs": [
						{
							"internalType": "uint256",
							"name": "",
							"type": "uint256"
						}
					],
					"stateMutability": "view",
					"type": "function"
				},
				{
					"inputs": [
						{
							"internalType": "uint256",
							"name": "",
							"type": "uint256"
						}
					],
					"name": "students",
					"outputs": [
						{
							"internalType": "uint256",
							"name": "rollNo",
							"type": "uint256"
						},
						{
							"internalType": "string",
							"name": "name",
							"type": "string"
						},
						{
							"internalType": "uint256",
							"name": "marks",
							"type": "uint256"
						}
					],
					"stateMutability": "view",
					"type": "function"
				},
				{
					"stateMutability": "payable",
					"type": "receive"
				}
			],
			"devdoc": {
				"kind": "dev",
				"methods": {},
				"version": 1
			},
			"evm": {
				"assembly": "    /* \"StudentData.sol\":57:1350  contract StudentData {... */\n  mstore(0x40, 0x80)\n  callvalue\n  dup1\n  iszero\n  tag_1\n  jumpi\n  revert(0x00, 0x00)\ntag_1:\n  pop\n  dataSize(sub_0)\n  dup1\n  dataOffset(sub_0)\n  0x00\n  codecopy\n  0x00\n  return\nstop\n\nsub_0: assembly {\n        /* \"StudentData.sol\":57:1350  contract StudentData {... */\n      mstore(0x40, 0x80)\n      jumpi(tag_1, lt(calldatasize, 0x04))\n      shr(0xe0, calldataload(0x00))\n      dup1\n      0x06ead22e\n      eq\n      tag_3\n      jumpi\n      dup1\n      0x28bcb51a\n      eq\n      tag_4\n      jumpi\n      dup1\n      0x642f9163\n      eq\n      tag_5\n      jumpi\n      dup1\n      0xc1bea1db\n      eq\n      tag_6\n      jumpi\n      jump(tag_2)\n    tag_1:\n    tag_2:\n      stop\n        /* \"StudentData.sol\":268:293  Student[] public students */\n    tag_3:\n      callvalue\n      dup1\n      iszero\n      tag_11\n      jumpi\n      revert(0x00, 0x00)\n    tag_11:\n      pop\n      tag_12\n      0x04\n      dup1\n      calldatasize\n      sub\n      dup2\n      add\n      swap1\n      tag_13\n      swap2\n      swap1\n      tag_14\n      jump\t// in\n    tag_13:\n      tag_15\n      jump\t// in\n    tag_12:\n      mload(0x40)\n      tag_16\n      swap4\n      swap3\n      swap2\n      swap1\n      tag_17\n      jump\t// in\n    tag_16:\n      mload(0x40)\n      dup1\n      swap2\n      sub\n      swap1\n      return\n        /* \"StudentData.sol\":990:1087  function getTotalStudents() public view returns (uint256) {... */\n    tag_4:\n      callvalue\n      dup1\n      iszero\n      tag_18\n      jumpi\n      revert(0x00, 0x00)\n    tag_18:\n      pop\n      tag_19\n      tag_20\n      jump\t// in\n    tag_19:\n      mload(0x40)\n      tag_21\n      swap2\n      swap1\n      tag_22\n      jump\t// in\n    tag_21:\n      mload(0x40)\n      dup1\n      swap2\n      sub\n      swap1\n      return\n        /* \"StudentData.sol\":693:936  function getStudent(uint256 index) public view returns (uint256, string memory, uint256) {... */\n    tag_5:\n      callvalue\n      dup1\n      iszero\n      tag_23\n      jumpi\n      revert(0x00, 0x00)\n    tag_23:\n      pop\n      tag_24\n      0x04\n      dup1\n      calldatasize\n      sub\n      dup2\n      add\n      swap1\n      tag_25\n      swap2\n      swap1\n      tag_14\n      jump\t// in\n    tag_25:\n      tag_26\n      jump\t// in\n    tag_24:\n      mload(0x40)\n      tag_27\n      swap4\n      swap3\n      swap2\n      swap1\n      tag_17\n      jump\t// in\n    tag_27:\n      mload(0x40)\n      dup1\n      swap2\n      sub\n      swap1\n      return\n        /* \"StudentData.sol\":444:639  function addStudent(uint256 _rollNo, string memory _name, uint256 _marks) public {... */\n    tag_6:\n      callvalue\n      dup1\n      iszero\n      tag_28\n      jumpi\n      revert(0x00, 0x00)\n    tag_28:\n      pop\n      tag_29\n      0x04\n      dup1\n      calldatasize\n      sub\n      dup2\n      add\n      swap1\n      tag_30\n      swap2\n      swap1\n      tag_31\n      jump\t// in\n    tag_30:\n      tag_32\n      jump\t// in\n    tag_29:\n      stop\n        /* \"StudentData.sol\":268:293  Student[] public students */\n    tag_15:\n      0x00\n      dup2\n      dup2\n      sload\n      dup2\n      lt\n      tag_33\n      jumpi\n      0x00\n      dup1\n      revert\n    tag_33:\n      swap1\n      0x00\n      mstore\n      keccak256(0x00, 0x20)\n      swap1\n      0x03\n      mul\n      add\n      0x00\n      swap2\n      pop\n      swap1\n      pop\n      dup1\n      0x00\n      add\n      sload\n      swap1\n      dup1\n      0x01\n      add\n      dup1\n      sload\n      tag_35\n      swap1\n      tag_36\n      jump\t// in\n    tag_35:\n      dup1\n      0x1f\n      add\n      0x20\n      dup1\n      swap2\n      div\n      mul\n      0x20\n      add\n      mload(0x40)\n      swap1\n      dup2\n      add\n      0x40\n      mstore\n      dup1\n      swap3\n      swap2\n      swap1\n      dup2\n      dup2\n      mstore\n      0x20\n      add\n      dup3\n      dup1\n      sload\n      tag_37\n      swap1\n      tag_36\n      jump\t// in\n    tag_37:\n      dup1\n      iszero\n      tag_38\n      jumpi\n      dup1\n      0x1f\n      lt\n      tag_39\n      jumpi\n      0x0100\n      dup1\n      dup4\n      sload\n      div\n      mul\n      dup4\n      mstore\n      swap2\n      0x20\n      add\n      swap2\n      jump(tag_38)\n    tag_39:\n      dup3\n      add\n      swap2\n      swap1\n      0x00\n      mstore\n      keccak256(0x00, 0x20)\n      swap1\n    tag_40:\n      dup2\n      sload\n      dup2\n      mstore\n      swap1\n      0x01\n      add\n      swap1\n      0x20\n      add\n      dup1\n      dup4\n      gt\n      tag_40\n      jumpi\n      dup3\n      swap1\n      sub\n      0x1f\n      and\n      dup3\n      add\n      swap2\n    tag_38:\n      pop\n      pop\n      pop\n      pop\n      pop\n      swap1\n      dup1\n      0x02\n      add\n      sload\n      swap1\n      pop\n      dup4\n      jump\t// out\n        /* \"StudentData.sol\":990:1087  function getTotalStudents() public view returns (uint256) {... */\n    tag_20:\n        /* \"StudentData.sol\":1039:1046  uint256 */\n      0x00\n        /* \"StudentData.sol\":1065:1073  students */\n      0x00\n        /* \"StudentData.sol\":1065:1080  students.length */\n      dup1\n      sload\n      swap1\n      pop\n        /* \"StudentData.sol\":1058:1080  return students.length */\n      swap1\n      pop\n        /* \"StudentData.sol\":990:1087  function getTotalStudents() public view returns (uint256) {... */\n      swap1\n      jump\t// out\n        /* \"StudentData.sol\":693:936  function getStudent(uint256 index) public view returns (uint256, string memory, uint256) {... */\n    tag_26:\n        /* \"StudentData.sol\":749:756  uint256 */\n      0x00\n        /* \"StudentData.sol\":758:771  string memory */\n      0x60\n        /* \"StudentData.sol\":773:780  uint256 */\n      0x00\n        /* \"StudentData.sol\":808:816  students */\n      0x00\n        /* \"StudentData.sol\":808:823  students.length */\n      dup1\n      sload\n      swap1\n      pop\n        /* \"StudentData.sol\":800:805  index */\n      dup5\n        /* \"StudentData.sol\":800:823  index < students.length */\n      lt\n        /* \"StudentData.sol\":792:841  require(index < students.length, \"Invalid index\") */\n      tag_43\n      jumpi\n      mload(0x40)\n      0x08c379a000000000000000000000000000000000000000000000000000000000\n      dup2\n      mstore\n      0x04\n      add\n      tag_44\n      swap1\n      tag_45\n      jump\t// in\n    tag_44:\n      mload(0x40)\n      dup1\n      swap2\n      sub\n      swap1\n      revert\n    tag_43:\n        /* \"StudentData.sol\":851:867  Student memory s */\n      0x00\n        /* \"StudentData.sol\":870:878  students */\n      0x00\n        /* \"StudentData.sol\":879:884  index */\n      dup6\n        /* \"StudentData.sol\":870:885  students[index] */\n      dup2\n      sload\n      dup2\n      lt\n      tag_46\n      jumpi\n      tag_47\n      tag_48\n      jump\t// in\n    tag_47:\n    tag_46:\n      swap1\n      0x00\n      mstore\n      keccak256(0x00, 0x20)\n      swap1\n      0x03\n      mul\n      add\n        /* \"StudentData.sol\":851:885  Student memory s = students[index] */\n      mload(0x40)\n      dup1\n      0x60\n      add\n      0x40\n      mstore\n      swap1\n      dup2\n      0x00\n      dup3\n      add\n      sload\n      dup2\n      mstore\n      0x20\n      add\n      0x01\n      dup3\n      add\n      dup1\n      sload\n      tag_50\n      swap1\n      tag_36\n      jump\t// in\n    tag_50:\n      dup1\n      0x1f\n      add\n      0x20\n      dup1\n      swap2\n      div\n      mul\n      0x20\n      add\n      mload(0x40)\n      swap1\n      dup2\n      add\n      0x40\n      mstore\n      dup1\n      swap3\n      swap2\n      swap1\n      dup2\n      dup2\n      mstore\n      0x20\n      add\n      dup3\n      dup1\n      sload\n      tag_51\n      swap1\n      tag_36\n      jump\t// in\n    tag_51:\n      dup1\n      iszero\n      tag_52\n      jumpi\n      dup1\n      0x1f\n      lt\n      tag_53\n      jumpi\n      0x0100\n      dup1\n      dup4\n      sload\n      div\n      mul\n      dup4\n      mstore\n      swap2\n      0x20\n      add\n      swap2\n      jump(tag_52)\n    tag_53:\n      dup3\n      add\n      swap2\n      swap1\n      0x00\n      mstore\n      keccak256(0x00, 0x20)\n      swap1\n    tag_54:\n      dup2\n      sload\n      dup2\n      mstore\n      swap1\n      0x01\n      add\n      swap1\n      0x20\n      add\n      dup1\n      dup4\n      gt\n      tag_54\n      jumpi\n      dup3\n      swap1\n      sub\n      0x1f\n      and\n      dup3\n      add\n      swap2\n    tag_52:\n      pop\n      pop\n      pop\n      pop\n      pop\n      dup2\n      mstore\n      0x20\n      add\n      0x02\n      dup3\n      add\n      sload\n      dup2\n      mstore\n      pop\n      pop\n      swap1\n      pop\n        /* \"StudentData.sol\":903:904  s */\n      dup1\n        /* \"StudentData.sol\":903:911  s.rollNo */\n      0x00\n      add\n      mload\n        /* \"StudentData.sol\":913:914  s */\n      dup2\n        /* \"StudentData.sol\":913:919  s.name */\n      0x20\n      add\n      mload\n        /* \"StudentData.sol\":921:922  s */\n      dup3\n        /* \"StudentData.sol\":921:928  s.marks */\n      0x40\n      add\n      mload\n        /* \"StudentData.sol\":895:929  return (s.rollNo, s.name, s.marks) */\n      swap4\n      pop\n      swap4\n      pop\n      swap4\n      pop\n      pop\n        /* \"StudentData.sol\":693:936  function getStudent(uint256 index) public view returns (uint256, string memory, uint256) {... */\n      swap2\n      swap4\n      swap1\n      swap3\n      pop\n      jump\t// out\n        /* \"StudentData.sol\":444:639  function addStudent(uint256 _rollNo, string memory _name, uint256 _marks) public {... */\n    tag_32:\n        /* \"StudentData.sol\":535:543  students */\n      0x00\n        /* \"StudentData.sol\":549:580  Student(_rollNo, _name, _marks) */\n      mload(0x40)\n      dup1\n      0x60\n      add\n      0x40\n      mstore\n      dup1\n        /* \"StudentData.sol\":557:564  _rollNo */\n      dup6\n        /* \"StudentData.sol\":549:580  Student(_rollNo, _name, _marks) */\n      dup2\n      mstore\n      0x20\n      add\n        /* \"StudentData.sol\":566:571  _name */\n      dup5\n        /* \"StudentData.sol\":549:580  Student(_rollNo, _name, _marks) */\n      dup2\n      mstore\n      0x20\n      add\n        /* \"StudentData.sol\":573:579  _marks */\n      dup4\n        /* \"StudentData.sol\":549:580  Student(_rollNo, _name, _marks) */\n      dup2\n      mstore\n      pop\n        /* \"StudentData.sol\":535:581  students.push(Student(_rollNo, _name, _marks)) */\n      swap1\n      dup1\n      0x01\n      dup2\n      sload\n      add\n      dup1\n      dup3\n      sstore\n      dup1\n      swap2\n      pop\n      pop\n      0x01\n      swap1\n      sub\n      swap1\n      0x00\n      mstore\n      keccak256(0x00, 0x20)\n      swap1\n      0x03\n      mul\n      add\n      0x00\n      swap1\n      swap2\n      swap1\n      swap2\n      swap1\n      swap2\n      pop\n      0x00\n      dup3\n      add\n      mload\n      dup2\n      0x00\n      add\n      sstore\n      0x20\n      dup3\n      add\n      mload\n      dup2\n      0x01\n      add\n      swap1\n      dup2\n      tag_57\n      swap2\n      swap1\n      tag_58\n      jump\t// in\n    tag_57:\n      pop\n      0x40\n      dup3\n      add\n      mload\n      dup2\n      0x02\n      add\n      sstore\n      pop\n      pop\n        /* \"StudentData.sol\":596:632  StudentAdded(_rollNo, _name, _marks) */\n      0xfafb7311fc57ca8a55073f63725e888b4250c799d77ae873970d65ac08c5917a\n        /* \"StudentData.sol\":609:616  _rollNo */\n      dup4\n        /* \"StudentData.sol\":618:623  _name */\n      dup4\n        /* \"StudentData.sol\":625:631  _marks */\n      dup4\n        /* \"StudentData.sol\":596:632  StudentAdded(_rollNo, _name, _marks) */\n      mload(0x40)\n      tag_59\n      swap4\n      swap3\n      swap2\n      swap1\n      tag_17\n      jump\t// in\n    tag_59:\n      mload(0x40)\n      dup1\n      swap2\n      sub\n      swap1\n      log1\n        /* \"StudentData.sol\":444:639  function addStudent(uint256 _rollNo, string memory _name, uint256 _marks) public {... */\n      pop\n      pop\n      pop\n      jump\t// out\n        /* \"#utility.yul\":7:82   */\n    tag_60:\n        /* \"#utility.yul\":40:46   */\n      0x00\n        /* \"#utility.yul\":73:75   */\n      0x40\n        /* \"#utility.yul\":67:76   */\n      mload\n        /* \"#utility.yul\":57:76   */\n      swap1\n      pop\n        /* \"#utility.yul\":7:82   */\n      swap1\n      jump\t// out\n        /* \"#utility.yul\":88:205   */\n    tag_61:\n        /* \"#utility.yul\":197:198   */\n      0x00\n        /* \"#utility.yul\":194:195   */\n      0x00\n        /* \"#utility.yul\":187:199   */\n      revert\n        /* \"#utility.yul\":211:328   */\n    tag_62:\n        /* \"#utility.yul\":320:321   */\n      0x00\n        /* \"#utility.yul\":317:318   */\n      0x00\n        /* \"#utility.yul\":310:322   */\n      revert\n        /* \"#utility.yul\":334:411   */\n    tag_63:\n        /* \"#utility.yul\":371:378   */\n      0x00\n        /* \"#utility.yul\":400:405   */\n      dup2\n        /* \"#utility.yul\":389:405   */\n      swap1\n      pop\n        /* \"#utility.yul\":334:411   */\n      swap2\n      swap1\n      pop\n      jump\t// out\n        /* \"#utility.yul\":417:539   */\n    tag_64:\n        /* \"#utility.yul\":490:514   */\n      tag_105\n        /* \"#utility.yul\":508:513   */\n      dup2\n        /* \"#utility.yul\":490:514   */\n      tag_63\n      jump\t// in\n    tag_105:\n        /* \"#utility.yul\":483:488   */\n      dup2\n        /* \"#utility.yul\":480:515   */\n      eq\n        /* \"#utility.yul\":470:533   */\n      tag_106\n      jumpi\n        /* \"#utility.yul\":529:530   */\n      0x00\n        /* \"#utility.yul\":526:527   */\n      0x00\n        /* \"#utility.yul\":519:531   */\n      revert\n        /* \"#utility.yul\":470:533   */\n    tag_106:\n        /* \"#utility.yul\":417:539   */\n      pop\n      jump\t// out\n        /* \"#utility.yul\":545:684   */\n    tag_65:\n        /* \"#utility.yul\":591:596   */\n      0x00\n        /* \"#utility.yul\":629:635   */\n      dup2\n        /* \"#utility.yul\":616:636   */\n      calldataload\n        /* \"#utility.yul\":607:636   */\n      swap1\n      pop\n        /* \"#utility.yul\":645:678   */\n      tag_108\n        /* \"#utility.yul\":672:677   */\n      dup2\n        /* \"#utility.yul\":645:678   */\n      tag_64\n      jump\t// in\n    tag_108:\n        /* \"#utility.yul\":545:684   */\n      swap3\n      swap2\n      pop\n      pop\n      jump\t// out\n        /* \"#utility.yul\":690:1019   */\n    tag_14:\n        /* \"#utility.yul\":749:755   */\n      0x00\n        /* \"#utility.yul\":798:800   */\n      0x20\n        /* \"#utility.yul\":786:795   */\n      dup3\n        /* \"#utility.yul\":777:784   */\n      dup5\n        /* \"#utility.yul\":773:796   */\n      sub\n        /* \"#utility.yul\":769:801   */\n      slt\n        /* \"#utility.yul\":766:885   */\n      iszero\n      tag_110\n      jumpi\n        /* \"#utility.yul\":804:883   */\n      tag_111\n      tag_61\n      jump\t// in\n    tag_111:\n        /* \"#utility.yul\":766:885   */\n    tag_110:\n        /* \"#utility.yul\":924:925   */\n      0x00\n        /* \"#utility.yul\":949:1002   */\n      tag_112\n        /* \"#utility.yul\":994:1001   */\n      dup5\n        /* \"#utility.yul\":985:991   */\n      dup3\n        /* \"#utility.yul\":974:983   */\n      dup6\n        /* \"#utility.yul\":970:992   */\n      add\n        /* \"#utility.yul\":949:1002   */\n      tag_65\n      jump\t// in\n    tag_112:\n        /* \"#utility.yul\":939:1002   */\n      swap2\n      pop\n        /* \"#utility.yul\":895:1012   */\n      pop\n        /* \"#utility.yul\":690:1019   */\n      swap3\n      swap2\n      pop\n      pop\n      jump\t// out\n        /* \"#utility.yul\":1025:1143   */\n    tag_66:\n        /* \"#utility.yul\":1112:1136   */\n      tag_114\n        /* \"#utility.yul\":1130:1135   */\n      dup2\n        /* \"#utility.yul\":1112:1136   */\n      tag_63\n      jump\t// in\n    tag_114:\n        /* \"#utility.yul\":1107:1110   */\n      dup3\n        /* \"#utility.yul\":1100:1137   */\n      mstore\n        /* \"#utility.yul\":1025:1143   */\n      pop\n      pop\n      jump\t// out\n        /* \"#utility.yul\":1149:1248   */\n    tag_67:\n        /* \"#utility.yul\":1201:1207   */\n      0x00\n        /* \"#utility.yul\":1235:1240   */\n      dup2\n        /* \"#utility.yul\":1229:1241   */\n      mload\n        /* \"#utility.yul\":1219:1241   */\n      swap1\n      pop\n        /* \"#utility.yul\":1149:1248   */\n      swap2\n      swap1\n      pop\n      jump\t// out\n        /* \"#utility.yul\":1254:1423   */\n    tag_68:\n        /* \"#utility.yul\":1338:1349   */\n      0x00\n        /* \"#utility.yul\":1372:1378   */\n      dup3\n        /* \"#utility.yul\":1367:1370   */\n      dup3\n        /* \"#utility.yul\":1360:1379   */\n      mstore\n        /* \"#utility.yul\":1412:1416   */\n      0x20\n        /* \"#utility.yul\":1407:1410   */\n      dup3\n        /* \"#utility.yul\":1403:1417   */\n      add\n        /* \"#utility.yul\":1388:1417   */\n      swap1\n      pop\n        /* \"#utility.yul\":1254:1423   */\n      swap3\n      swap2\n      pop\n      pop\n      jump\t// out\n        /* \"#utility.yul\":1429:1568   */\n    tag_69:\n        /* \"#utility.yul\":1518:1524   */\n      dup3\n        /* \"#utility.yul\":1513:1516   */\n      dup2\n        /* \"#utility.yul\":1508:1511   */\n      dup4\n        /* \"#utility.yul\":1502:1525   */\n      mcopy\n        /* \"#utility.yul\":1559:1560   */\n      0x00\n        /* \"#utility.yul\":1550:1556   */\n      dup4\n        /* \"#utility.yul\":1545:1548   */\n      dup4\n        /* \"#utility.yul\":1541:1557   */\n      add\n        /* \"#utility.yul\":1534:1561   */\n      mstore\n        /* \"#utility.yul\":1429:1568   */\n      pop\n      pop\n      pop\n      jump\t// out\n        /* \"#utility.yul\":1574:1676   */\n    tag_70:\n        /* \"#utility.yul\":1615:1621   */\n      0x00\n        /* \"#utility.yul\":1666:1668   */\n      0x1f\n        /* \"#utility.yul\":1662:1669   */\n      not\n        /* \"#utility.yul\":1657:1659   */\n      0x1f\n        /* \"#utility.yul\":1650:1655   */\n      dup4\n        /* \"#utility.yul\":1646:1660   */\n      add\n        /* \"#utility.yul\":1642:1670   */\n      and\n        /* \"#utility.yul\":1632:1670   */\n      swap1\n      pop\n        /* \"#utility.yul\":1574:1676   */\n      swap2\n      swap1\n      pop\n      jump\t// out\n        /* \"#utility.yul\":1682:2059   */\n    tag_71:\n        /* \"#utility.yul\":1770:1773   */\n      0x00\n        /* \"#utility.yul\":1798:1837   */\n      tag_120\n        /* \"#utility.yul\":1831:1836   */\n      dup3\n        /* \"#utility.yul\":1798:1837   */\n      tag_67\n      jump\t// in\n    tag_120:\n        /* \"#utility.yul\":1853:1924   */\n      tag_121\n        /* \"#utility.yul\":1917:1923   */\n      dup2\n        /* \"#utility.yul\":1912:1915   */\n      dup6\n        /* \"#utility.yul\":1853:1924   */\n      tag_68\n      jump\t// in\n    tag_121:\n        /* \"#utility.yul\":1846:1924   */\n      swap4\n      pop\n        /* \"#utility.yul\":1933:1998   */\n      tag_122\n        /* \"#utility.yul\":1991:1997   */\n      dup2\n        /* \"#utility.yul\":1986:1989   */\n      dup6\n        /* \"#utility.yul\":1979:1983   */\n      0x20\n        /* \"#utility.yul\":1972:1977   */\n      dup7\n        /* \"#utility.yul\":1968:1984   */\n      add\n        /* \"#utility.yul\":1933:1998   */\n      tag_69\n      jump\t// in\n    tag_122:\n        /* \"#utility.yul\":2023:2052   */\n      tag_123\n        /* \"#utility.yul\":2045:2051   */\n      dup2\n        /* \"#utility.yul\":2023:2052   */\n      tag_70\n      jump\t// in\n    tag_123:\n        /* \"#utility.yul\":2018:2021   */\n      dup5\n        /* \"#utility.yul\":2014:2053   */\n      add\n        /* \"#utility.yul\":2007:2053   */\n      swap2\n      pop\n        /* \"#utility.yul\":1774:2059   */\n      pop\n        /* \"#utility.yul\":1682:2059   */\n      swap3\n      swap2\n      pop\n      pop\n      jump\t// out\n        /* \"#utility.yul\":2065:2598   */\n    tag_17:\n        /* \"#utility.yul\":2234:2238   */\n      0x00\n        /* \"#utility.yul\":2272:2274   */\n      0x60\n        /* \"#utility.yul\":2261:2270   */\n      dup3\n        /* \"#utility.yul\":2257:2275   */\n      add\n        /* \"#utility.yul\":2249:2275   */\n      swap1\n      pop\n        /* \"#utility.yul\":2285:2356   */\n      tag_125\n        /* \"#utility.yul\":2353:2354   */\n      0x00\n        /* \"#utility.yul\":2342:2351   */\n      dup4\n        /* \"#utility.yul\":2338:2355   */\n      add\n        /* \"#utility.yul\":2329:2335   */\n      dup7\n        /* \"#utility.yul\":2285:2356   */\n      tag_66\n      jump\t// in\n    tag_125:\n        /* \"#utility.yul\":2403:2412   */\n      dup2\n        /* \"#utility.yul\":2397:2401   */\n      dup2\n        /* \"#utility.yul\":2393:2413   */\n      sub\n        /* \"#utility.yul\":2388:2390   */\n      0x20\n        /* \"#utility.yul\":2377:2386   */\n      dup4\n        /* \"#utility.yul\":2373:2391   */\n      add\n        /* \"#utility.yul\":2366:2414   */\n      mstore\n        /* \"#utility.yul\":2431:2509   */\n      tag_126\n        /* \"#utility.yul\":2504:2508   */\n      dup2\n        /* \"#utility.yul\":2495:2501   */\n      dup6\n        /* \"#utility.yul\":2431:2509   */\n      tag_71\n      jump\t// in\n    tag_126:\n        /* \"#utility.yul\":2423:2509   */\n      swap1\n      pop\n        /* \"#utility.yul\":2519:2591   */\n      tag_127\n        /* \"#utility.yul\":2587:2589   */\n      0x40\n        /* \"#utility.yul\":2576:2585   */\n      dup4\n        /* \"#utility.yul\":2572:2590   */\n      add\n        /* \"#utility.yul\":2563:2569   */\n      dup5\n        /* \"#utility.yul\":2519:2591   */\n      tag_66\n      jump\t// in\n    tag_127:\n        /* \"#utility.yul\":2065:2598   */\n      swap5\n      swap4\n      pop\n      pop\n      pop\n      pop\n      jump\t// out\n        /* \"#utility.yul\":2604:2826   */\n    tag_22:\n        /* \"#utility.yul\":2697:2701   */\n      0x00\n        /* \"#utility.yul\":2735:2737   */\n      0x20\n        /* \"#utility.yul\":2724:2733   */\n      dup3\n        /* \"#utility.yul\":2720:2738   */\n      add\n        /* \"#utility.yul\":2712:2738   */\n      swap1\n      pop\n        /* \"#utility.yul\":2748:2819   */\n      tag_129\n        /* \"#utility.yul\":2816:2817   */\n      0x00\n        /* \"#utility.yul\":2805:2814   */\n      dup4\n        /* \"#utility.yul\":2801:2818   */\n      add\n        /* \"#utility.yul\":2792:2798   */\n      dup5\n        /* \"#utility.yul\":2748:2819   */\n      tag_66\n      jump\t// in\n    tag_129:\n        /* \"#utility.yul\":2604:2826   */\n      swap3\n      swap2\n      pop\n      pop\n      jump\t// out\n        /* \"#utility.yul\":2832:2949   */\n    tag_72:\n        /* \"#utility.yul\":2941:2942   */\n      0x00\n        /* \"#utility.yul\":2938:2939   */\n      0x00\n        /* \"#utility.yul\":2931:2943   */\n      revert\n        /* \"#utility.yul\":2955:3072   */\n    tag_73:\n        /* \"#utility.yul\":3064:3065   */\n      0x00\n        /* \"#utility.yul\":3061:3062   */\n      0x00\n        /* \"#utility.yul\":3054:3066   */\n      revert\n        /* \"#utility.yul\":3078:3258   */\n    tag_74:\n        /* \"#utility.yul\":3126:3203   */\n      0x4e487b7100000000000000000000000000000000000000000000000000000000\n        /* \"#utility.yul\":3123:3124   */\n      0x00\n        /* \"#utility.yul\":3116:3204   */\n      mstore\n        /* \"#utility.yul\":3223:3227   */\n      0x41\n        /* \"#utility.yul\":3220:3221   */\n      0x04\n        /* \"#utility.yul\":3213:3228   */\n      mstore\n        /* \"#utility.yul\":3247:3251   */\n      0x24\n        /* \"#utility.yul\":3244:3245   */\n      0x00\n        /* \"#utility.yul\":3237:3252   */\n      revert\n        /* \"#utility.yul\":3264:3545   */\n    tag_75:\n        /* \"#utility.yul\":3347:3374   */\n      tag_134\n        /* \"#utility.yul\":3369:3373   */\n      dup3\n        /* \"#utility.yul\":3347:3374   */\n      tag_70\n      jump\t// in\n    tag_134:\n        /* \"#utility.yul\":3339:3345   */\n      dup2\n        /* \"#utility.yul\":3335:3375   */\n      add\n        /* \"#utility.yul\":3477:3483   */\n      dup2\n        /* \"#utility.yul\":3465:3475   */\n      dup2\n        /* \"#utility.yul\":3462:3484   */\n      lt\n        /* \"#utility.yul\":3441:3459   */\n      0xffffffffffffffff\n        /* \"#utility.yul\":3429:3439   */\n      dup3\n        /* \"#utility.yul\":3426:3460   */\n      gt\n        /* \"#utility.yul\":3423:3485   */\n      or\n        /* \"#utility.yul\":3420:3508   */\n      iszero\n      tag_135\n      jumpi\n        /* \"#utility.yul\":3488:3506   */\n      tag_136\n      tag_74\n      jump\t// in\n    tag_136:\n        /* \"#utility.yul\":3420:3508   */\n    tag_135:\n        /* \"#utility.yul\":3528:3538   */\n      dup1\n        /* \"#utility.yul\":3524:3526   */\n      0x40\n        /* \"#utility.yul\":3517:3539   */\n      mstore\n        /* \"#utility.yul\":3307:3545   */\n      pop\n        /* \"#utility.yul\":3264:3545   */\n      pop\n      pop\n      jump\t// out\n        /* \"#utility.yul\":3551:3680   */\n    tag_76:\n        /* \"#utility.yul\":3585:3591   */\n      0x00\n        /* \"#utility.yul\":3612:3632   */\n      tag_138\n      tag_60\n      jump\t// in\n    tag_138:\n        /* \"#utility.yul\":3602:3632   */\n      swap1\n      pop\n        /* \"#utility.yul\":3641:3674   */\n      tag_139\n        /* \"#utility.yul\":3669:3673   */\n      dup3\n        /* \"#utility.yul\":3661:3667   */\n      dup3\n        /* \"#utility.yul\":3641:3674   */\n      tag_75\n      jump\t// in\n    tag_139:\n        /* \"#utility.yul\":3551:3680   */\n      swap2\n      swap1\n      pop\n      jump\t// out\n        /* \"#utility.yul\":3686:3994   */\n    tag_77:\n        /* \"#utility.yul\":3748:3752   */\n      0x00\n        /* \"#utility.yul\":3838:3856   */\n      0xffffffffffffffff\n        /* \"#utility.yul\":3830:3836   */\n      dup3\n        /* \"#utility.yul\":3827:3857   */\n      gt\n        /* \"#utility.yul\":3824:3880   */\n      iszero\n      tag_141\n      jumpi\n        /* \"#utility.yul\":3860:3878   */\n      tag_142\n      tag_74\n      jump\t// in\n    tag_142:\n        /* \"#utility.yul\":3824:3880   */\n    tag_141:\n        /* \"#utility.yul\":3898:3927   */\n      tag_143\n        /* \"#utility.yul\":3920:3926   */\n      dup3\n        /* \"#utility.yul\":3898:3927   */\n      tag_70\n      jump\t// in\n    tag_143:\n        /* \"#utility.yul\":3890:3927   */\n      swap1\n      pop\n        /* \"#utility.yul\":3982:3986   */\n      0x20\n        /* \"#utility.yul\":3976:3980   */\n      dup2\n        /* \"#utility.yul\":3972:3987   */\n      add\n        /* \"#utility.yul\":3964:3987   */\n      swap1\n      pop\n        /* \"#utility.yul\":3686:3994   */\n      swap2\n      swap1\n      pop\n      jump\t// out\n        /* \"#utility.yul\":4000:4148   */\n    tag_78:\n        /* \"#utility.yul\":4098:4104   */\n      dup3\n        /* \"#utility.yul\":4093:4096   */\n      dup2\n        /* \"#utility.yul\":4088:4091   */\n      dup4\n        /* \"#utility.yul\":4075:4105   */\n      calldatacopy\n        /* \"#utility.yul\":4139:4140   */\n      0x00\n        /* \"#utility.yul\":4130:4136   */\n      dup4\n        /* \"#utility.yul\":4125:4128   */\n      dup4\n        /* \"#utility.yul\":4121:4137   */\n      add\n        /* \"#utility.yul\":4114:4141   */\n      mstore\n        /* \"#utility.yul\":4000:4148   */\n      pop\n      pop\n      pop\n      jump\t// out\n        /* \"#utility.yul\":4154:4579   */\n    tag_79:\n        /* \"#utility.yul\":4232:4237   */\n      0x00\n        /* \"#utility.yul\":4257:4323   */\n      tag_146\n        /* \"#utility.yul\":4273:4322   */\n      tag_147\n        /* \"#utility.yul\":4315:4321   */\n      dup5\n        /* \"#utility.yul\":4273:4322   */\n      tag_77\n      jump\t// in\n    tag_147:\n        /* \"#utility.yul\":4257:4323   */\n      tag_76\n      jump\t// in\n    tag_146:\n        /* \"#utility.yul\":4248:4323   */\n      swap1\n      pop\n        /* \"#utility.yul\":4346:4352   */\n      dup3\n        /* \"#utility.yul\":4339:4344   */\n      dup2\n        /* \"#utility.yul\":4332:4353   */\n      mstore\n        /* \"#utility.yul\":4384:4388   */\n      0x20\n        /* \"#utility.yul\":4377:4382   */\n      dup2\n        /* \"#utility.yul\":4373:4389   */\n      add\n        /* \"#utility.yul\":4422:4425   */\n      dup5\n        /* \"#utility.yul\":4413:4419   */\n      dup5\n        /* \"#utility.yul\":4408:4411   */\n      dup5\n        /* \"#utility.yul\":4404:4420   */\n      add\n        /* \"#utility.yul\":4401:4426   */\n      gt\n        /* \"#utility.yul\":4398:4510   */\n      iszero\n      tag_148\n      jumpi\n        /* \"#utility.yul\":4429:4508   */\n      tag_149\n      tag_73\n      jump\t// in\n    tag_149:\n        /* \"#utility.yul\":4398:4510   */\n    tag_148:\n        /* \"#utility.yul\":4519:4573   */\n      tag_150\n        /* \"#utility.yul\":4566:4572   */\n      dup5\n        /* \"#utility.yul\":4561:4564   */\n      dup3\n        /* \"#utility.yul\":4556:4559   */\n      dup6\n        /* \"#utility.yul\":4519:4573   */\n      tag_78\n      jump\t// in\n    tag_150:\n        /* \"#utility.yul\":4238:4579   */\n      pop\n        /* \"#utility.yul\":4154:4579   */\n      swap4\n      swap3\n      pop\n      pop\n      pop\n      jump\t// out\n        /* \"#utility.yul\":4599:4939   */\n    tag_80:\n        /* \"#utility.yul\":4655:4660   */\n      0x00\n        /* \"#utility.yul\":4704:4707   */\n      dup3\n        /* \"#utility.yul\":4697:4701   */\n      0x1f\n        /* \"#utility.yul\":4689:4695   */\n      dup4\n        /* \"#utility.yul\":4685:4702   */\n      add\n        /* \"#utility.yul\":4681:4708   */\n      slt\n        /* \"#utility.yul\":4671:4793   */\n      tag_152\n      jumpi\n        /* \"#utility.yul\":4712:4791   */\n      tag_153\n      tag_72\n      jump\t// in\n    tag_153:\n        /* \"#utility.yul\":4671:4793   */\n    tag_152:\n        /* \"#utility.yul\":4829:4835   */\n      dup2\n        /* \"#utility.yul\":4816:4836   */\n      calldataload\n        /* \"#utility.yul\":4854:4933   */\n      tag_154\n        /* \"#utility.yul\":4929:4932   */\n      dup5\n        /* \"#utility.yul\":4921:4927   */\n      dup3\n        /* \"#utility.yul\":4914:4918   */\n      0x20\n        /* \"#utility.yul\":4906:4912   */\n      dup7\n        /* \"#utility.yul\":4902:4919   */\n      add\n        /* \"#utility.yul\":4854:4933   */\n      tag_79\n      jump\t// in\n    tag_154:\n        /* \"#utility.yul\":4845:4933   */\n      swap2\n      pop\n        /* \"#utility.yul\":4661:4939   */\n      pop\n        /* \"#utility.yul\":4599:4939   */\n      swap3\n      swap2\n      pop\n      pop\n      jump\t// out\n        /* \"#utility.yul\":4945:5744   */\n    tag_31:\n        /* \"#utility.yul\":5032:5038   */\n      0x00\n        /* \"#utility.yul\":5040:5046   */\n      0x00\n        /* \"#utility.yul\":5048:5054   */\n      0x00\n        /* \"#utility.yul\":5097:5099   */\n      0x60\n        /* \"#utility.yul\":5085:5094   */\n      dup5\n        /* \"#utility.yul\":5076:5083   */\n      dup7\n        /* \"#utility.yul\":5072:5095   */\n      sub\n        /* \"#utility.yul\":5068:5100   */\n      slt\n        /* \"#utility.yul\":5065:5184   */\n      iszero\n      tag_156\n      jumpi\n        /* \"#utility.yul\":5103:5182   */\n      tag_157\n      tag_61\n      jump\t// in\n    tag_157:\n        /* \"#utility.yul\":5065:5184   */\n    tag_156:\n        /* \"#utility.yul\":5223:5224   */\n      0x00\n        /* \"#utility.yul\":5248:5301   */\n      tag_158\n        /* \"#utility.yul\":5293:5300   */\n      dup7\n        /* \"#utility.yul\":5284:5290   */\n      dup3\n        /* \"#utility.yul\":5273:5282   */\n      dup8\n        /* \"#utility.yul\":5269:5291   */\n      add\n        /* \"#utility.yul\":5248:5301   */\n      tag_65\n      jump\t// in\n    tag_158:\n        /* \"#utility.yul\":5238:5301   */\n      swap4\n      pop\n        /* \"#utility.yul\":5194:5311   */\n      pop\n        /* \"#utility.yul\":5378:5380   */\n      0x20\n        /* \"#utility.yul\":5367:5376   */\n      dup5\n        /* \"#utility.yul\":5363:5381   */\n      add\n        /* \"#utility.yul\":5350:5382   */\n      calldataload\n        /* \"#utility.yul\":5409:5427   */\n      0xffffffffffffffff\n        /* \"#utility.yul\":5401:5407   */\n      dup2\n        /* \"#utility.yul\":5398:5428   */\n      gt\n        /* \"#utility.yul\":5395:5512   */\n      iszero\n      tag_159\n      jumpi\n        /* \"#utility.yul\":5431:5510   */\n      tag_160\n      tag_62\n      jump\t// in\n    tag_160:\n        /* \"#utility.yul\":5395:5512   */\n    tag_159:\n        /* \"#utility.yul\":5536:5599   */\n      tag_161\n        /* \"#utility.yul\":5591:5598   */\n      dup7\n        /* \"#utility.yul\":5582:5588   */\n      dup3\n        /* \"#utility.yul\":5571:5580   */\n      dup8\n        /* \"#utility.yul\":5567:5589   */\n      add\n        /* \"#utility.yul\":5536:5599   */\n      tag_80\n      jump\t// in\n    tag_161:\n        /* \"#utility.yul\":5526:5599   */\n      swap3\n      pop\n        /* \"#utility.yul\":5321:5609   */\n      pop\n        /* \"#utility.yul\":5648:5650   */\n      0x40\n        /* \"#utility.yul\":5674:5727   */\n      tag_162\n        /* \"#utility.yul\":5719:5726   */\n      dup7\n        /* \"#utility.yul\":5710:5716   */\n      dup3\n        /* \"#utility.yul\":5699:5708   */\n      dup8\n        /* \"#utility.yul\":5695:5717   */\n      add\n        /* \"#utility.yul\":5674:5727   */\n      tag_65\n      jump\t// in\n    tag_162:\n        /* \"#utility.yul\":5664:5727   */\n      swap2\n      pop\n        /* \"#utility.yul\":5619:5737   */\n      pop\n        /* \"#utility.yul\":4945:5744   */\n      swap3\n      pop\n      swap3\n      pop\n      swap3\n      jump\t// out\n        /* \"#utility.yul\":5750:5930   */\n    tag_81:\n        /* \"#utility.yul\":5798:5875   */\n      0x4e487b7100000000000000000000000000000000000000000000000000000000\n        /* \"#utility.yul\":5795:5796   */\n      0x00\n        /* \"#utility.yul\":5788:5876   */\n      mstore\n        /* \"#utility.yul\":5895:5899   */\n      0x22\n        /* \"#utility.yul\":5892:5893   */\n      0x04\n        /* \"#utility.yul\":5885:5900   */\n      mstore\n        /* \"#utility.yul\":5919:5923   */\n      0x24\n        /* \"#utility.yul\":5916:5917   */\n      0x00\n        /* \"#utility.yul\":5909:5924   */\n      revert\n        /* \"#utility.yul\":5936:6256   */\n    tag_36:\n        /* \"#utility.yul\":5980:5986   */\n      0x00\n        /* \"#utility.yul\":6017:6018   */\n      0x02\n        /* \"#utility.yul\":6011:6015   */\n      dup3\n        /* \"#utility.yul\":6007:6019   */\n      div\n        /* \"#utility.yul\":5997:6019   */\n      swap1\n      pop\n        /* \"#utility.yul\":6064:6065   */\n      0x01\n        /* \"#utility.yul\":6058:6062   */\n      dup3\n        /* \"#utility.yul\":6054:6066   */\n      and\n        /* \"#utility.yul\":6085:6103   */\n      dup1\n        /* \"#utility.yul\":6075:6156   */\n      tag_165\n      jumpi\n        /* \"#utility.yul\":6141:6145   */\n      0x7f\n        /* \"#utility.yul\":6133:6139   */\n      dup3\n        /* \"#utility.yul\":6129:6146   */\n      and\n        /* \"#utility.yul\":6119:6146   */\n      swap2\n      pop\n        /* \"#utility.yul\":6075:6156   */\n    tag_165:\n        /* \"#utility.yul\":6203:6205   */\n      0x20\n        /* \"#utility.yul\":6195:6201   */\n      dup3\n        /* \"#utility.yul\":6192:6206   */\n      lt\n        /* \"#utility.yul\":6172:6190   */\n      dup2\n        /* \"#utility.yul\":6169:6207   */\n      sub\n        /* \"#utility.yul\":6166:6250   */\n      tag_166\n      jumpi\n        /* \"#utility.yul\":6222:6240   */\n      tag_167\n      tag_81\n      jump\t// in\n    tag_167:\n        /* \"#utility.yul\":6166:6250   */\n    tag_166:\n        /* \"#utility.yul\":5987:6256   */\n      pop\n        /* \"#utility.yul\":5936:6256   */\n      swap2\n      swap1\n      pop\n      jump\t// out\n        /* \"#utility.yul\":6262:6425   */\n    tag_82:\n        /* \"#utility.yul\":6402:6417   */\n      0x496e76616c696420696e64657800000000000000000000000000000000000000\n        /* \"#utility.yul\":6398:6399   */\n      0x00\n        /* \"#utility.yul\":6390:6396   */\n      dup3\n        /* \"#utility.yul\":6386:6400   */\n      add\n        /* \"#utility.yul\":6379:6418   */\n      mstore\n        /* \"#utility.yul\":6262:6425   */\n      pop\n      jump\t// out\n        /* \"#utility.yul\":6431:6797   */\n    tag_83:\n        /* \"#utility.yul\":6573:6576   */\n      0x00\n        /* \"#utility.yul\":6594:6661   */\n      tag_170\n        /* \"#utility.yul\":6658:6660   */\n      0x0d\n        /* \"#utility.yul\":6653:6656   */\n      dup4\n        /* \"#utility.yul\":6594:6661   */\n      tag_68\n      jump\t// in\n    tag_170:\n        /* \"#utility.yul\":6587:6661   */\n      swap2\n      pop\n        /* \"#utility.yul\":6670:6763   */\n      tag_171\n        /* \"#utility.yul\":6759:6762   */\n      dup3\n        /* \"#utility.yul\":6670:6763   */\n      tag_82\n      jump\t// in\n    tag_171:\n        /* \"#utility.yul\":6788:6790   */\n      0x20\n        /* \"#utility.yul\":6783:6786   */\n      dup3\n        /* \"#utility.yul\":6779:6791   */\n      add\n        /* \"#utility.yul\":6772:6791   */\n      swap1\n      pop\n        /* \"#utility.yul\":6431:6797   */\n      swap2\n      swap1\n      pop\n      jump\t// out\n        /* \"#utility.yul\":6803:7222   */\n    tag_45:\n        /* \"#utility.yul\":6969:6973   */\n      0x00\n        /* \"#utility.yul\":7007:7009   */\n      0x20\n        /* \"#utility.yul\":6996:7005   */\n      dup3\n        /* \"#utility.yul\":6992:7010   */\n      add\n        /* \"#utility.yul\":6984:7010   */\n      swap1\n      pop\n        /* \"#utility.yul\":7056:7065   */\n      dup2\n        /* \"#utility.yul\":7050:7054   */\n      dup2\n        /* \"#utility.yul\":7046:7066   */\n      sub\n        /* \"#utility.yul\":7042:7043   */\n      0x00\n        /* \"#utility.yul\":7031:7040   */\n      dup4\n        /* \"#utility.yul\":7027:7044   */\n      add\n        /* \"#utility.yul\":7020:7067   */\n      mstore\n        /* \"#utility.yul\":7084:7215   */\n      tag_173\n        /* \"#utility.yul\":7210:7214   */\n      dup2\n        /* \"#utility.yul\":7084:7215   */\n      tag_83\n      jump\t// in\n    tag_173:\n        /* \"#utility.yul\":7076:7215   */\n      swap1\n      pop\n        /* \"#utility.yul\":6803:7222   */\n      swap2\n      swap1\n      pop\n      jump\t// out\n        /* \"#utility.yul\":7228:7408   */\n    tag_48:\n        /* \"#utility.yul\":7276:7353   */\n      0x4e487b7100000000000000000000000000000000000000000000000000000000\n        /* \"#utility.yul\":7273:7274   */\n      0x00\n        /* \"#utility.yul\":7266:7354   */\n      mstore\n        /* \"#utility.yul\":7373:7377   */\n      0x32\n        /* \"#utility.yul\":7370:7371   */\n      0x04\n        /* \"#utility.yul\":7363:7378   */\n      mstore\n        /* \"#utility.yul\":7397:7401   */\n      0x24\n        /* \"#utility.yul\":7394:7395   */\n      0x00\n        /* \"#utility.yul\":7387:7402   */\n      revert\n        /* \"#utility.yul\":7414:7555   */\n    tag_84:\n        /* \"#utility.yul\":7463:7467   */\n      0x00\n        /* \"#utility.yul\":7486:7489   */\n      dup2\n        /* \"#utility.yul\":7478:7489   */\n      swap1\n      pop\n        /* \"#utility.yul\":7509:7512   */\n      dup2\n        /* \"#utility.yul\":7506:7507   */\n      0x00\n        /* \"#utility.yul\":7499:7513   */\n      mstore\n        /* \"#utility.yul\":7543:7547   */\n      0x20\n        /* \"#utility.yul\":7540:7541   */\n      0x00\n        /* \"#utility.yul\":7530:7548   */\n      keccak256\n        /* \"#utility.yul\":7522:7548   */\n      swap1\n      pop\n        /* \"#utility.yul\":7414:7555   */\n      swap2\n      swap1\n      pop\n      jump\t// out\n        /* \"#utility.yul\":7561:7654   */\n    tag_85:\n        /* \"#utility.yul\":7598:7604   */\n      0x00\n        /* \"#utility.yul\":7645:7647   */\n      0x20\n        /* \"#utility.yul\":7640:7642   */\n      0x1f\n        /* \"#utility.yul\":7633:7638   */\n      dup4\n        /* \"#utility.yul\":7629:7643   */\n      add\n        /* \"#utility.yul\":7625:7648   */\n      div\n        /* \"#utility.yul\":7615:7648   */\n      swap1\n      pop\n        /* \"#utility.yul\":7561:7654   */\n      swap2\n      swap1\n      pop\n      jump\t// out\n        /* \"#utility.yul\":7660:7767   */\n    tag_86:\n        /* \"#utility.yul\":7704:7712   */\n      0x00\n        /* \"#utility.yul\":7754:7759   */\n      dup3\n        /* \"#utility.yul\":7748:7752   */\n      dup3\n        /* \"#utility.yul\":7744:7760   */\n      shl\n        /* \"#utility.yul\":7723:7760   */\n      swap1\n      pop\n        /* \"#utility.yul\":7660:7767   */\n      swap3\n      swap2\n      pop\n      pop\n      jump\t// out\n        /* \"#utility.yul\":7773:8166   */\n    tag_87:\n        /* \"#utility.yul\":7842:7848   */\n      0x00\n        /* \"#utility.yul\":7892:7893   */\n      0x08\n        /* \"#utility.yul\":7880:7890   */\n      dup4\n        /* \"#utility.yul\":7876:7894   */\n      mul\n        /* \"#utility.yul\":7915:8012   */\n      tag_179\n        /* \"#utility.yul\":7945:8011   */\n      0xffffffffffffffffffffffffffffffffffffffffffffffffffffffffffffffff\n        /* \"#utility.yul\":7934:7943   */\n      dup3\n        /* \"#utility.yul\":7915:8012   */\n      tag_86\n      jump\t// in\n    tag_179:\n        /* \"#utility.yul\":8033:8072   */\n      tag_180\n        /* \"#utility.yul\":8063:8071   */\n      dup7\n        /* \"#utility.yul\":8052:8061   */\n      dup4\n        /* \"#utility.yul\":8033:8072   */\n      tag_86\n      jump\t// in\n    tag_180:\n        /* \"#utility.yul\":8021:8072   */\n      swap6\n      pop\n        /* \"#utility.yul\":8105:8109   */\n      dup1\n        /* \"#utility.yul\":8101:8110   */\n      not\n        /* \"#utility.yul\":8094:8099   */\n      dup5\n        /* \"#utility.yul\":8090:8111   */\n      and\n        /* \"#utility.yul\":8081:8111   */\n      swap4\n      pop\n        /* \"#utility.yul\":8154:8158   */\n      dup1\n        /* \"#utility.yul\":8144:8152   */\n      dup7\n        /* \"#utility.yul\":8140:8159   */\n      and\n        /* \"#utility.yul\":8133:8138   */\n      dup5\n        /* \"#utility.yul\":8130:8160   */\n      or\n        /* \"#utility.yul\":8120:8160   */\n      swap3\n      pop\n        /* \"#utility.yul\":7849:8166   */\n      pop\n      pop\n        /* \"#utility.yul\":7773:8166   */\n      swap4\n      swap3\n      pop\n      pop\n      pop\n      jump\t// out\n        /* \"#utility.yul\":8172:8232   */\n    tag_88:\n        /* \"#utility.yul\":8200:8203   */\n      0x00\n        /* \"#utility.yul\":8221:8226   */\n      dup2\n        /* \"#utility.yul\":8214:8226   */\n      swap1\n      pop\n        /* \"#utility.yul\":8172:8232   */\n      swap2\n      swap1\n      pop\n      jump\t// out\n        /* \"#utility.yul\":8238:8380   */\n    tag_89:\n        /* \"#utility.yul\":8288:8297   */\n      0x00\n        /* \"#utility.yul\":8321:8374   */\n      tag_183\n        /* \"#utility.yul\":8339:8373   */\n      tag_184\n        /* \"#utility.yul\":8348:8372   */\n      tag_185\n        /* \"#utility.yul\":8366:8371   */\n      dup5\n        /* \"#utility.yul\":8348:8372   */\n      tag_63\n      jump\t// in\n    tag_185:\n        /* \"#utility.yul\":8339:8373   */\n      tag_88\n      jump\t// in\n    tag_184:\n        /* \"#utility.yul\":8321:8374   */\n      tag_63\n      jump\t// in\n    tag_183:\n        /* \"#utility.yul\":8308:8374   */\n      swap1\n      pop\n        /* \"#utility.yul\":8238:8380   */\n      swap2\n      swap1\n      pop\n      jump\t// out\n        /* \"#utility.yul\":8386:8461   */\n    tag_90:\n        /* \"#utility.yul\":8429:8432   */\n      0x00\n        /* \"#utility.yul\":8450:8455   */\n      dup2\n        /* \"#utility.yul\":8443:8455   */\n      swap1\n      pop\n        /* \"#utility.yul\":8386:8461   */\n      swap2\n      swap1\n      pop\n      jump\t// out\n        /* \"#utility.yul\":8467:8736   */\n    tag_91:\n        /* \"#utility.yul\":8577:8616   */\n      tag_188\n        /* \"#utility.yul\":8608:8615   */\n      dup4\n        /* \"#utility.yul\":8577:8616   */\n      tag_89\n      jump\t// in\n    tag_188:\n        /* \"#utility.yul\":8638:8729   */\n      tag_189\n        /* \"#utility.yul\":8687:8728   */\n      tag_190\n        /* \"#utility.yul\":8711:8727   */\n      dup3\n        /* \"#utility.yul\":8687:8728   */\n      tag_90\n      jump\t// in\n    tag_190:\n        /* \"#utility.yul\":8679:8685   */\n      dup5\n        /* \"#utility.yul\":8672:8676   */\n      dup5\n        /* \"#utility.yul\":8666:8677   */\n      sload\n        /* \"#utility.yul\":8638:8729   */\n      tag_87\n      jump\t// in\n    tag_189:\n        /* \"#utility.yul\":8632:8636   */\n      dup3\n        /* \"#utility.yul\":8625:8730   */\n      sstore\n        /* \"#utility.yul\":8543:8736   */\n      pop\n        /* \"#utility.yul\":8467:8736   */\n      pop\n      pop\n      pop\n      jump\t// out\n        /* \"#utility.yul\":8742:8815   */\n    tag_92:\n        /* \"#utility.yul\":8787:8790   */\n      0x00\n        /* \"#utility.yul\":8808:8809   */\n      0x00\n        /* \"#utility.yul\":8801:8809   */\n      swap1\n      pop\n        /* \"#utility.yul\":8742:8815   */\n      swap1\n      jump\t// out\n        /* \"#utility.yul\":8821:9010   */\n    tag_93:\n        /* \"#utility.yul\":8898:8930   */\n      tag_193\n      tag_92\n      jump\t// in\n    tag_193:\n        /* \"#utility.yul\":8939:9004   */\n      tag_194\n        /* \"#utility.yul\":8997:9003   */\n      dup2\n        /* \"#utility.yul\":8989:8995   */\n      dup5\n        /* \"#utility.yul\":8983:8987   */\n      dup5\n        /* \"#utility.yul\":8939:9004   */\n      tag_91\n      jump\t// in\n    tag_194:\n        /* \"#utility.yul\":8874:9010   */\n      pop\n        /* \"#utility.yul\":8821:9010   */\n      pop\n      pop\n      jump\t// out\n        /* \"#utility.yul\":9016:9202   */\n    tag_94:\n        /* \"#utility.yul\":9076:9196   */\n    tag_196:\n        /* \"#utility.yul\":9093:9096   */\n      dup2\n        /* \"#utility.yul\":9086:9091   */\n      dup2\n        /* \"#utility.yul\":9083:9097   */\n      lt\n        /* \"#utility.yul\":9076:9196   */\n      iszero\n      tag_198\n      jumpi\n        /* \"#utility.yul\":9147:9186   */\n      tag_199\n        /* \"#utility.yul\":9184:9185   */\n      0x00\n        /* \"#utility.yul\":9177:9182   */\n      dup3\n        /* \"#utility.yul\":9147:9186   */\n      tag_93\n      jump\t// in\n    tag_199:\n        /* \"#utility.yul\":9120:9121   */\n      0x01\n        /* \"#utility.yul\":9113:9118   */\n      dup2\n        /* \"#utility.yul\":9109:9122   */\n      add\n        /* \"#utility.yul\":9100:9122   */\n      swap1\n      pop\n        /* \"#utility.yul\":9076:9196   */\n      jump(tag_196)\n    tag_198:\n        /* \"#utility.yul\":9016:9202   */\n      pop\n      pop\n      jump\t// out\n        /* \"#utility.yul\":9208:9751   */\n    tag_95:\n        /* \"#utility.yul\":9309:9311   */\n      0x1f\n        /* \"#utility.yul\":9304:9307   */\n      dup3\n        /* \"#utility.yul\":9301:9312   */\n      gt\n        /* \"#utility.yul\":9298:9744   */\n      iszero\n      tag_201\n      jumpi\n        /* \"#utility.yul\":9343:9381   */\n      tag_202\n        /* \"#utility.yul\":9375:9380   */\n      dup2\n        /* \"#utility.yul\":9343:9381   */\n      tag_84\n      jump\t// in\n    tag_202:\n        /* \"#utility.yul\":9427:9456   */\n      tag_203\n        /* \"#utility.yul\":9445:9455   */\n      dup5\n        /* \"#utility.yul\":9427:9456   */\n      tag_85\n      jump\t// in\n    tag_203:\n        /* \"#utility.yul\":9417:9425   */\n      dup2\n        /* \"#utility.yul\":9413:9457   */\n      add\n        /* \"#utility.yul\":9610:9612   */\n      0x20\n        /* \"#utility.yul\":9598:9608   */\n      dup6\n        /* \"#utility.yul\":9595:9613   */\n      lt\n        /* \"#utility.yul\":9592:9641   */\n      iszero\n      tag_204\n      jumpi\n        /* \"#utility.yul\":9631:9639   */\n      dup2\n        /* \"#utility.yul\":9616:9639   */\n      swap1\n      pop\n        /* \"#utility.yul\":9592:9641   */\n    tag_204:\n        /* \"#utility.yul\":9654:9734   */\n      tag_205\n        /* \"#utility.yul\":9710:9732   */\n      tag_206\n        /* \"#utility.yul\":9728:9731   */\n      dup6\n        /* \"#utility.yul\":9710:9732   */\n      tag_85\n      jump\t// in\n    tag_206:\n        /* \"#utility.yul\":9700:9708   */\n      dup4\n        /* \"#utility.yul\":9696:9733   */\n      add\n        /* \"#utility.yul\":9683:9694   */\n      dup3\n        /* \"#utility.yul\":9654:9734   */\n      tag_94\n      jump\t// in\n    tag_205:\n        /* \"#utility.yul\":9313:9744   */\n      pop\n      pop\n        /* \"#utility.yul\":9298:9744   */\n    tag_201:\n        /* \"#utility.yul\":9208:9751   */\n      pop\n      pop\n      pop\n      jump\t// out\n        /* \"#utility.yul\":9757:9874   */\n    tag_96:\n        /* \"#utility.yul\":9811:9819   */\n      0x00\n        /* \"#utility.yul\":9861:9866   */\n      dup3\n        /* \"#utility.yul\":9855:9859   */\n      dup3\n        /* \"#utility.yul\":9851:9867   */\n      shr\n        /* \"#utility.yul\":9830:9867   */\n      swap1\n      pop\n        /* \"#utility.yul\":9757:9874   */\n      swap3\n      swap2\n      pop\n      pop\n      jump\t// out\n        /* \"#utility.yul\":9880:10049   */\n    tag_97:\n        /* \"#utility.yul\":9924:9930   */\n      0x00\n        /* \"#utility.yul\":9957:10008   */\n      tag_209\n        /* \"#utility.yul\":10005:10006   */\n      0x00\n        /* \"#utility.yul\":10001:10007   */\n      not\n        /* \"#utility.yul\":9993:9998   */\n      dup5\n        /* \"#utility.yul\":9990:9991   */\n      0x08\n        /* \"#utility.yul\":9986:9999   */\n      mul\n        /* \"#utility.yul\":9957:10008   */\n      tag_96\n      jump\t// in\n    tag_209:\n        /* \"#utility.yul\":9953:10009   */\n      not\n        /* \"#utility.yul\":10038:10042   */\n      dup1\n        /* \"#utility.yul\":10032:10036   */\n      dup4\n        /* \"#utility.yul\":10028:10043   */\n      and\n        /* \"#utility.yul\":10018:10043   */\n      swap2\n      pop\n        /* \"#utility.yul\":9931:10049   */\n      pop\n        /* \"#utility.yul\":9880:10049   */\n      swap3\n      swap2\n      pop\n      pop\n      jump\t// out\n        /* \"#utility.yul\":10054:10349   */\n    tag_98:\n        /* \"#utility.yul\":10130:10134   */\n      0x00\n        /* \"#utility.yul\":10276:10305   */\n      tag_211\n        /* \"#utility.yul\":10301:10304   */\n      dup4\n        /* \"#utility.yul\":10295:10299   */\n      dup4\n        /* \"#utility.yul\":10276:10305   */\n      tag_97\n      jump\t// in\n    tag_211:\n        /* \"#utility.yul\":10268:10305   */\n      swap2\n      pop\n        /* \"#utility.yul\":10338:10341   */\n      dup3\n        /* \"#utility.yul\":10335:10336   */\n      0x02\n        /* \"#utility.yul\":10331:10342   */\n      mul\n        /* \"#utility.yul\":10325:10329   */\n      dup3\n        /* \"#utility.yul\":10322:10343   */\n      or\n        /* \"#utility.yul\":10314:10343   */\n      swap1\n      pop\n        /* \"#utility.yul\":10054:10349   */\n      swap3\n      swap2\n      pop\n      pop\n      jump\t// out\n        /* \"#utility.yul\":10354:11749   */\n    tag_58:\n        /* \"#utility.yul\":10471:10508   */\n      tag_213\n        /* \"#utility.yul\":10504:10507   */\n      dup3\n        /* \"#utility.yul\":10471:10508   */\n      tag_67\n      jump\t// in\n    tag_213:\n        /* \"#utility.yul\":10573:10591   */\n      0xffffffffffffffff\n        /* \"#utility.yul\":10565:10571   */\n      dup2\n        /* \"#utility.yul\":10562:10592   */\n      gt\n        /* \"#utility.yul\":10559:10615   */\n      iszero\n      tag_214\n      jumpi\n        /* \"#utility.yul\":10595:10613   */\n      tag_215\n      tag_74\n      jump\t// in\n    tag_215:\n        /* \"#utility.yul\":10559:10615   */\n    tag_214:\n        /* \"#utility.yul\":10639:10677   */\n      tag_216\n        /* \"#utility.yul\":10671:10675   */\n      dup3\n        /* \"#utility.yul\":10665:10676   */\n      sload\n        /* \"#utility.yul\":10639:10677   */\n      tag_36\n      jump\t// in\n    tag_216:\n        /* \"#utility.yul\":10724:10791   */\n      tag_217\n        /* \"#utility.yul\":10784:10790   */\n      dup3\n        /* \"#utility.yul\":10776:10782   */\n      dup3\n        /* \"#utility.yul\":10770:10774   */\n      dup6\n        /* \"#utility.yul\":10724:10791   */\n      tag_95\n      jump\t// in\n    tag_217:\n        /* \"#utility.yul\":10818:10819   */\n      0x00\n        /* \"#utility.yul\":10842:10846   */\n      0x20\n        /* \"#utility.yul\":10829:10846   */\n      swap1\n      pop\n        /* \"#utility.yul\":10874:10876   */\n      0x1f\n        /* \"#utility.yul\":10866:10872   */\n      dup4\n        /* \"#utility.yul\":10863:10877   */\n      gt\n        /* \"#utility.yul\":10891:10892   */\n      0x01\n        /* \"#utility.yul\":10886:11504   */\n      dup2\n      eq\n      tag_219\n      jumpi\n        /* \"#utility.yul\":11548:11549   */\n      0x00\n        /* \"#utility.yul\":11565:11571   */\n      dup5\n        /* \"#utility.yul\":11562:11639   */\n      iszero\n      tag_220\n      jumpi\n        /* \"#utility.yul\":11614:11623   */\n      dup3\n        /* \"#utility.yul\":11609:11612   */\n      dup8\n        /* \"#utility.yul\":11605:11624   */\n      add\n        /* \"#utility.yul\":11599:11625   */\n      mload\n        /* \"#utility.yul\":11590:11625   */\n      swap1\n      pop\n        /* \"#utility.yul\":11562:11639   */\n    tag_220:\n        /* \"#utility.yul\":11665:11732   */\n      tag_221\n        /* \"#utility.yul\":11725:11731   */\n      dup6\n        /* \"#utility.yul\":11718:11723   */\n      dup3\n        /* \"#utility.yul\":11665:11732   */\n      tag_98\n      jump\t// in\n    tag_221:\n        /* \"#utility.yul\":11659:11663   */\n      dup7\n        /* \"#utility.yul\":11652:11733   */\n      sstore\n        /* \"#utility.yul\":11521:11743   */\n      pop\n        /* \"#utility.yul\":10856:11743   */\n      jump(tag_218)\n        /* \"#utility.yul\":10886:11504   */\n    tag_219:\n        /* \"#utility.yul\":10938:10942   */\n      0x1f\n        /* \"#utility.yul\":10934:10943   */\n      not\n        /* \"#utility.yul\":10926:10932   */\n      dup5\n        /* \"#utility.yul\":10922:10944   */\n      and\n        /* \"#utility.yul\":10972:11009   */\n      tag_222\n        /* \"#utility.yul\":11004:11008   */\n      dup7\n        /* \"#utility.yul\":10972:11009   */\n      tag_84\n      jump\t// in\n    tag_222:\n        /* \"#utility.yul\":11031:11032   */\n      0x00\n        /* \"#utility.yul\":11045:11253   */\n    tag_223:\n        /* \"#utility.yul\":11059:11066   */\n      dup3\n        /* \"#utility.yul\":11056:11057   */\n      dup2\n        /* \"#utility.yul\":11053:11067   */\n      lt\n        /* \"#utility.yul\":11045:11253   */\n      iszero\n      tag_225\n      jumpi\n        /* \"#utility.yul\":11138:11147   */\n      dup5\n        /* \"#utility.yul\":11133:11136   */\n      dup10\n        /* \"#utility.yul\":11129:11148   */\n      add\n        /* \"#utility.yul\":11123:11149   */\n      mload\n        /* \"#utility.yul\":11115:11121   */\n      dup3\n        /* \"#utility.yul\":11108:11150   */\n      sstore\n        /* \"#utility.yul\":11189:11190   */\n      0x01\n        /* \"#utility.yul\":11181:11187   */\n      dup3\n        /* \"#utility.yul\":11177:11191   */\n      add\n        /* \"#utility.yul\":11167:11191   */\n      swap2\n      pop\n        /* \"#utility.yul\":11236:11238   */\n      0x20\n        /* \"#utility.yul\":11225:11234   */\n      dup6\n        /* \"#utility.yul\":11221:11239   */\n      add\n        /* \"#utility.yul\":11208:11239   */\n      swap5\n      pop\n        /* \"#utility.yul\":11082:11086   */\n      0x20\n        /* \"#utility.yul\":11079:11080   */\n      dup2\n        /* \"#utility.yul\":11075:11087   */\n      add\n        /* \"#utility.yul\":11070:11087   */\n      swap1\n      pop\n        /* \"#utility.yul\":11045:11253   */\n      jump(tag_223)\n    tag_225:\n        /* \"#utility.yul\":11281:11287   */\n      dup7\n        /* \"#utility.yul\":11272:11279   */\n      dup4\n        /* \"#utility.yul\":11269:11288   */\n      lt\n        /* \"#utility.yul\":11266:11445   */\n      iszero\n      tag_226\n      jumpi\n        /* \"#utility.yul\":11339:11348   */\n      dup5\n        /* \"#utility.yul\":11334:11337   */\n      dup10\n        /* \"#utility.yul\":11330:11349   */\n      add\n        /* \"#utility.yul\":11324:11350   */\n      mload\n        /* \"#utility.yul\":11382:11430   */\n      tag_227\n        /* \"#utility.yul\":11424:11428   */\n      0x1f\n        /* \"#utility.yul\":11416:11422   */\n      dup10\n        /* \"#utility.yul\":11412:11429   */\n      and\n        /* \"#utility.yul\":11401:11410   */\n      dup3\n        /* \"#utility.yul\":11382:11430   */\n      tag_97\n      jump\t// in\n    tag_227:\n        /* \"#utility.yul\":11374:11380   */\n      dup4\n        /* \"#utility.yul\":11367:11431   */\n      sstore\n        /* \"#utility.yul\":11289:11445   */\n      pop\n        /* \"#utility.yul\":11266:11445   */\n    tag_226:\n        /* \"#utility.yul\":11491:11492   */\n      0x01\n        /* \"#utility.yul\":11487:11488   */\n      0x02\n        /* \"#utility.yul\":11479:11485   */\n      dup9\n        /* \"#utility.yul\":11475:11489   */\n      mul\n        /* \"#utility.yul\":11471:11493   */\n      add\n        /* \"#utility.yul\":11465:11469   */\n      dup9\n        /* \"#utility.yul\":11458:11494   */\n      sstore\n        /* \"#utility.yul\":10893:11504   */\n      pop\n      pop\n      pop\n        /* \"#utility.yul\":10856:11743   */\n    tag_218:\n      pop\n        /* \"#utility.yul\":10446:11749   */\n      pop\n      pop\n      pop\n        /* \"#utility.yul\":10354:11749   */\n      pop\n      pop\n      jump\t// out\n\n    auxdata: 0xa26469706673582212208e367c152039e5ead867b754540482436d960382321dff9abeb7de517fa6f15e64736f6c634300081e0033\n}\n",
				"bytecode": {
					"linkReferences": {},
					"object": "6080604052348015600e575f5ffd5b50610a2c8061001c5f395ff3fe608060405260043610610042575f3560e01c806306ead22e1461004557806328bcb51a14610083578063642f9163146100ad578063c1bea1db146100eb57610043565b5b005b348015610050575f5ffd5b5061006b600480360381019061006691906103fe565b610113565b60405161007a939291906104a8565b60405180910390f35b34801561008e575f5ffd5b506100976101cd565b6040516100a491906104e4565b60405180910390f35b3480156100b8575f5ffd5b506100d360048036038101906100ce91906103fe565b6101d8565b6040516100e2939291906104a8565b60405180910390f35b3480156100f6575f5ffd5b50610111600480360381019061010c9190610629565b61030e565b005b5f8181548110610121575f80fd5b905f5260205f2090600302015f91509050805f015490806001018054610146906106c2565b80601f0160208091040260200160405190810160405280929190818152602001828054610172906106c2565b80156101bd5780601f10610194576101008083540402835291602001916101bd565b820191905f5260205f20905b8154815290600101906020018083116101a057829003601f168201915b5050505050908060020154905083565b5f5f80549050905090565b5f60605f5f805490508410610222576040517f08c379a00000000000000000000000000000000000000000000000000000000081526004016102199061073c565b60405180910390fd5b5f5f85815481106102365761023561075a565b5b905f5260205f2090600302016040518060600160405290815f8201548152602001600182018054610266906106c2565b80601f0160208091040260200160405190810160405280929190818152602001828054610292906106c2565b80156102dd5780601f106102b4576101008083540402835291602001916102dd565b820191905f5260205f20905b8154815290600101906020018083116102c057829003601f168201915b505050505081526020016002820154815250509050805f015181602001518260400151935093509350509193909250565b5f604051806060016040528085815260200184815260200183815250908060018154018082558091505060019003905f5260205f2090600302015f909190919091505f820151815f0155602082015181600101908161036d9190610927565b506040820151816002015550507ffafb7311fc57ca8a55073f63725e888b4250c799d77ae873970d65ac08c5917a8383836040516103ad939291906104a8565b60405180910390a1505050565b5f604051905090565b5f5ffd5b5f5ffd5b5f819050919050565b6103dd816103cb565b81146103e7575f5ffd5b50565b5f813590506103f8816103d4565b92915050565b5f60208284031215610413576104126103c3565b5b5f610420848285016103ea565b91505092915050565b610432816103cb565b82525050565b5f81519050919050565b5f82825260208201905092915050565b8281835e5f83830152505050565b5f601f19601f8301169050919050565b5f61047a82610438565b6104848185610442565b9350610494818560208601610452565b61049d81610460565b840191505092915050565b5f6060820190506104bb5f830186610429565b81810360208301526104cd8185610470565b90506104dc6040830184610429565b949350505050565b5f6020820190506104f75f830184610429565b92915050565b5f5ffd5b5f5ffd5b7f4e487b71000000000000000000000000000000000000000000000000000000005f52604160045260245ffd5b61053b82610460565b810181811067ffffffffffffffff8211171561055a57610559610505565b5b80604052505050565b5f61056c6103ba565b90506105788282610532565b919050565b5f67ffffffffffffffff82111561059757610596610505565b5b6105a082610460565b9050602081019050919050565b828183375f83830152505050565b5f6105cd6105c88461057d565b610563565b9050828152602081018484840111156105e9576105e8610501565b5b6105f48482856105ad565b509392505050565b5f82601f8301126106105761060f6104fd565b5b81356106208482602086016105bb565b91505092915050565b5f5f5f606084860312156106405761063f6103c3565b5b5f61064d868287016103ea565b935050602084013567ffffffffffffffff81111561066e5761066d6103c7565b5b61067a868287016105fc565b925050604061068b868287016103ea565b9150509250925092565b7f4e487b71000000000000000000000000000000000000000000000000000000005f52602260045260245ffd5b5f60028204905060018216806106d957607f821691505b6020821081036106ec576106eb610695565b5b50919050565b7f496e76616c696420696e646578000000000000000000000000000000000000005f82015250565b5f610726600d83610442565b9150610731826106f2565b602082019050919050565b5f6020820190508181035f8301526107538161071a565b9050919050565b7f4e487b71000000000000000000000000000000000000000000000000000000005f52603260045260245ffd5b5f819050815f5260205f209050919050565b5f6020601f8301049050919050565b5f82821b905092915050565b5f600883026107e37fffffffffffffffffffffffffffffffffffffffffffffffffffffffffffffffff826107a8565b6107ed86836107a8565b95508019841693508086168417925050509392505050565b5f819050919050565b5f61082861082361081e846103cb565b610805565b6103cb565b9050919050565b5f819050919050565b6108418361080e565b61085561084d8261082f565b8484546107b4565b825550505050565b5f5f905090565b61086c61085d565b610877818484610838565b505050565b5b8181101561089a5761088f5f82610864565b60018101905061087d565b5050565b601f8211156108df576108b081610787565b6108b984610799565b810160208510156108c8578190505b6108dc6108d485610799565b83018261087c565b50505b505050565b5f82821c905092915050565b5f6108ff5f19846008026108e4565b1980831691505092915050565b5f61091783836108f0565b9150826002028217905092915050565b61093082610438565b67ffffffffffffffff81111561094957610948610505565b5b61095382546106c2565b61095e82828561089e565b5f60209050601f83116001811461098f575f841561097d578287015190505b610987858261090c565b8655506109ee565b601f19841661099d86610787565b5f5b828110156109c45784890151825560018201915060208501945060208101905061099f565b868310156109e157848901516109dd601f8916826108f0565b8355505b6001600288020188555050505b50505050505056fea26469706673582212208e367c152039e5ead867b754540482436d960382321dff9abeb7de517fa6f15e64736f6c634300081e0033",
					"opcodes": "PUSH1 0x80 PUSH1 0x40 MSTORE CALLVALUE DUP1 ISZERO PUSH1 0xE JUMPI PUSH0 PUSH0 REVERT JUMPDEST POP PUSH2 0xA2C DUP1 PUSH2 0x1C PUSH0 CODECOPY PUSH0 RETURN INVALID PUSH1 0x80 PUSH1 0x40 MSTORE PUSH1 0x4 CALLDATASIZE LT PUSH2 0x42 JUMPI PUSH0 CALLDATALOAD PUSH1 0xE0 SHR DUP1 PUSH4 0x6EAD22E EQ PUSH2 0x45 JUMPI DUP1 PUSH4 0x28BCB51A EQ PUSH2 0x83 JUMPI DUP1 PUSH4 0x642F9163 EQ PUSH2 0xAD JUMPI DUP1 PUSH4 0xC1BEA1DB EQ PUSH2 0xEB JUMPI PUSH2 0x43 JUMP JUMPDEST JUMPDEST STOP JUMPDEST CALLVALUE DUP1 ISZERO PUSH2 0x50 JUMPI PUSH0 PUSH0 REVERT JUMPDEST POP PUSH2 0x6B PUSH1 0x4 DUP1 CALLDATASIZE SUB DUP2 ADD SWAP1 PUSH2 0x66 SWAP2 SWAP1 PUSH2 0x3FE JUMP JUMPDEST PUSH2 0x113 JUMP JUMPDEST PUSH1 0x40 MLOAD PUSH2 0x7A SWAP4 SWAP3 SWAP2 SWAP1 PUSH2 0x4A8 JUMP JUMPDEST PUSH1 0x40 MLOAD DUP1 SWAP2 SUB SWAP1 RETURN JUMPDEST CALLVALUE DUP1 ISZERO PUSH2 0x8E JUMPI PUSH0 PUSH0 REVERT JUMPDEST POP PUSH2 0x97 PUSH2 0x1CD JUMP JUMPDEST PUSH1 0x40 MLOAD PUSH2 0xA4 SWAP2 SWAP1 PUSH2 0x4E4 JUMP JUMPDEST PUSH1 0x40 MLOAD DUP1 SWAP2 SUB SWAP1 RETURN JUMPDEST CALLVALUE DUP1 ISZERO PUSH2 0xB8 JUMPI PUSH0 PUSH0 REVERT JUMPDEST POP PUSH2 0xD3 PUSH1 0x4 DUP1 CALLDATASIZE SUB DUP2 ADD SWAP1 PUSH2 0xCE SWAP2 SWAP1 PUSH2 0x3FE JUMP JUMPDEST PUSH2 0x1D8 JUMP JUMPDEST PUSH1 0x40 MLOAD PUSH2 0xE2 SWAP4 SWAP3 SWAP2 SWAP1 PUSH2 0x4A8 JUMP JUMPDEST PUSH1 0x40 MLOAD DUP1 SWAP2 SUB SWAP1 RETURN JUMPDEST CALLVALUE DUP1 ISZERO PUSH2 0xF6 JUMPI PUSH0 PUSH0 REVERT JUMPDEST POP PUSH2 0x111 PUSH1 0x4 DUP1 CALLDATASIZE SUB DUP2 ADD SWAP1 PUSH2 0x10C SWAP2 SWAP1 PUSH2 0x629 JUMP JUMPDEST PUSH2 0x30E JUMP JUMPDEST STOP JUMPDEST PUSH0 DUP2 DUP2 SLOAD DUP2 LT PUSH2 0x121 JUMPI PUSH0 DUP1 REVERT JUMPDEST SWAP1 PUSH0 MSTORE PUSH1 0x20 PUSH0 KECCAK256 SWAP1 PUSH1 0x3 MUL ADD PUSH0 SWAP2 POP SWAP1 POP DUP1 PUSH0 ADD SLOAD SWAP1 DUP1 PUSH1 0x1 ADD DUP1 SLOAD PUSH2 0x146 SWAP1 PUSH2 0x6C2 JUMP JUMPDEST DUP1 PUSH1 0x1F ADD PUSH1 0x20 DUP1 SWAP2 DIV MUL PUSH1 0x20 ADD PUSH1 0x40 MLOAD SWAP1 DUP2 ADD PUSH1 0x40 MSTORE DUP1 SWAP3 SWAP2 SWAP1 DUP2 DUP2 MSTORE PUSH1 0x20 ADD DUP3 DUP1 SLOAD PUSH2 0x172 SWAP1 PUSH2 0x6C2 JUMP JUMPDEST DUP1 ISZERO PUSH2 0x1BD JUMPI DUP1 PUSH1 0x1F LT PUSH2 0x194 JUMPI PUSH2 0x100 DUP1 DUP4 SLOAD DIV MUL DUP4 MSTORE SWAP2 PUSH1 0x20 ADD SWAP2 PUSH2 0x1BD JUMP JUMPDEST DUP3 ADD SWAP2 SWAP1 PUSH0 MSTORE PUSH1 0x20 PUSH0 KECCAK256 SWAP1 JUMPDEST DUP2 SLOAD DUP2 MSTORE SWAP1 PUSH1 0x1 ADD SWAP1 PUSH1 0x20 ADD DUP1 DUP4 GT PUSH2 0x1A0 JUMPI DUP3 SWAP1 SUB PUSH1 0x1F AND DUP3 ADD SWAP2 JUMPDEST POP POP POP POP POP SWAP1 DUP1 PUSH1 0x2 ADD SLOAD SWAP1 POP DUP4 JUMP JUMPDEST PUSH0 PUSH0 DUP1 SLOAD SWAP1 POP SWAP1 POP SWAP1 JUMP JUMPDEST PUSH0 PUSH1 0x60 PUSH0 PUSH0 DUP1 SLOAD SWAP1 POP DUP5 LT PUSH2 0x222 JUMPI PUSH1 0x40 MLOAD PUSH32 0x8C379A000000000000000000000000000000000000000000000000000000000 DUP2 MSTORE PUSH1 0x4 ADD PUSH2 0x219 SWAP1 PUSH2 0x73C JUMP JUMPDEST PUSH1 0x40 MLOAD DUP1 SWAP2 SUB SWAP1 REVERT JUMPDEST PUSH0 PUSH0 DUP6 DUP2 SLOAD DUP2 LT PUSH2 0x236 JUMPI PUSH2 0x235 PUSH2 0x75A JUMP JUMPDEST JUMPDEST SWAP1 PUSH0 MSTORE PUSH1 0x20 PUSH0 KECCAK256 SWAP1 PUSH1 0x3 MUL ADD PUSH1 0x40 MLOAD DUP1 PUSH1 0x60 ADD PUSH1 0x40 MSTORE SWAP1 DUP2 PUSH0 DUP3 ADD SLOAD DUP2 MSTORE PUSH1 0x20 ADD PUSH1 0x1 DUP3 ADD DUP1 SLOAD PUSH2 0x266 SWAP1 PUSH2 0x6C2 JUMP JUMPDEST DUP1 PUSH1 0x1F ADD PUSH1 0x20 DUP1 SWAP2 DIV MUL PUSH1 0x20 ADD PUSH1 0x40 MLOAD SWAP1 DUP2 ADD PUSH1 0x40 MSTORE DUP1 SWAP3 SWAP2 SWAP1 DUP2 DUP2 MSTORE PUSH1 0x20 ADD DUP3 DUP1 SLOAD PUSH2 0x292 SWAP1 PUSH2 0x6C2 JUMP JUMPDEST DUP1 ISZERO PUSH2 0x2DD JUMPI DUP1 PUSH1 0x1F LT PUSH2 0x2B4 JUMPI PUSH2 0x100 DUP1 DUP4 SLOAD DIV MUL DUP4 MSTORE SWAP2 PUSH1 0x20 ADD SWAP2 PUSH2 0x2DD JUMP JUMPDEST DUP3 ADD SWAP2 SWAP1 PUSH0 MSTORE PUSH1 0x20 PUSH0 KECCAK256 SWAP1 JUMPDEST DUP2 SLOAD DUP2 MSTORE SWAP1 PUSH1 0x1 ADD SWAP1 PUSH1 0x20 ADD DUP1 DUP4 GT PUSH2 0x2C0 JUMPI DUP3 SWAP1 SUB PUSH1 0x1F AND DUP3 ADD SWAP2 JUMPDEST POP POP POP POP POP DUP2 MSTORE PUSH1 0x20 ADD PUSH1 0x2 DUP3 ADD SLOAD DUP2 MSTORE POP POP SWAP1 POP DUP1 PUSH0 ADD MLOAD DUP2 PUSH1 0x20 ADD MLOAD DUP3 PUSH1 0x40 ADD MLOAD SWAP4 POP SWAP4 POP SWAP4 POP POP SWAP2 SWAP4 SWAP1 SWAP3 POP JUMP JUMPDEST PUSH0 PUSH1 0x40 MLOAD DUP1 PUSH1 0x60 ADD PUSH1 0x40 MSTORE DUP1 DUP6 DUP2 MSTORE PUSH1 0x20 ADD DUP5 DUP2 MSTORE PUSH1 0x20 ADD DUP4 DUP2 MSTORE POP SWAP1 DUP1 PUSH1 0x1 DUP2 SLOAD ADD DUP1 DUP3 SSTORE DUP1 SWAP2 POP POP PUSH1 0x1 SWAP1 SUB SWAP1 PUSH0 MSTORE PUSH1 0x20 PUSH0 KECCAK256 SWAP1 PUSH1 0x3 MUL ADD PUSH0 SWAP1 SWAP2 SWAP1 SWAP2 SWAP1 SWAP2 POP PUSH0 DUP3 ADD MLOAD DUP2 PUSH0 ADD SSTORE PUSH1 0x20 DUP3 ADD MLOAD DUP2 PUSH1 0x1 ADD SWAP1 DUP2 PUSH2 0x36D SWAP2 SWAP1 PUSH2 0x927 JUMP JUMPDEST POP PUSH1 0x40 DUP3 ADD MLOAD DUP2 PUSH1 0x2 ADD SSTORE POP POP PUSH32 0xFAFB7311FC57CA8A55073F63725E888B4250C799D77AE873970D65AC08C5917A DUP4 DUP4 DUP4 PUSH1 0x40 MLOAD PUSH2 0x3AD SWAP4 SWAP3 SWAP2 SWAP1 PUSH2 0x4A8 JUMP JUMPDEST PUSH1 0x40 MLOAD DUP1 SWAP2 SUB SWAP1 LOG1 POP POP POP JUMP JUMPDEST PUSH0 PUSH1 0x40 MLOAD SWAP1 POP SWAP1 JUMP JUMPDEST PUSH0 PUSH0 REVERT JUMPDEST PUSH0 PUSH0 REVERT JUMPDEST PUSH0 DUP2 SWAP1 POP SWAP2 SWAP1 POP JUMP JUMPDEST PUSH2 0x3DD DUP2 PUSH2 0x3CB JUMP JUMPDEST DUP2 EQ PUSH2 0x3E7 JUMPI PUSH0 PUSH0 REVERT JUMPDEST POP JUMP JUMPDEST PUSH0 DUP2 CALLDATALOAD SWAP1 POP PUSH2 0x3F8 DUP2 PUSH2 0x3D4 JUMP JUMPDEST SWAP3 SWAP2 POP POP JUMP JUMPDEST PUSH0 PUSH1 0x20 DUP3 DUP5 SUB SLT ISZERO PUSH2 0x413 JUMPI PUSH2 0x412 PUSH2 0x3C3 JUMP JUMPDEST JUMPDEST PUSH0 PUSH2 0x420 DUP5 DUP3 DUP6 ADD PUSH2 0x3EA JUMP JUMPDEST SWAP2 POP POP SWAP3 SWAP2 POP POP JUMP JUMPDEST PUSH2 0x432 DUP2 PUSH2 0x3CB JUMP JUMPDEST DUP3 MSTORE POP POP JUMP JUMPDEST PUSH0 DUP2 MLOAD SWAP1 POP SWAP2 SWAP1 POP JUMP JUMPDEST PUSH0 DUP3 DUP3 MSTORE PUSH1 0x20 DUP3 ADD SWAP1 POP SWAP3 SWAP2 POP POP JUMP JUMPDEST DUP3 DUP2 DUP4 MCOPY PUSH0 DUP4 DUP4 ADD MSTORE POP POP POP JUMP JUMPDEST PUSH0 PUSH1 0x1F NOT PUSH1 0x1F DUP4 ADD AND SWAP1 POP SWAP2 SWAP1 POP JUMP JUMPDEST PUSH0 PUSH2 0x47A DUP3 PUSH2 0x438 JUMP JUMPDEST PUSH2 0x484 DUP2 DUP6 PUSH2 0x442 JUMP JUMPDEST SWAP4 POP PUSH2 0x494 DUP2 DUP6 PUSH1 0x20 DUP7 ADD PUSH2 0x452 JUMP JUMPDEST PUSH2 0x49D DUP2 PUSH2 0x460 JUMP JUMPDEST DUP5 ADD SWAP2 POP POP SWAP3 SWAP2 POP POP JUMP JUMPDEST PUSH0 PUSH1 0x60 DUP3 ADD SWAP1 POP PUSH2 0x4BB PUSH0 DUP4 ADD DUP7 PUSH2 0x429 JUMP JUMPDEST DUP2 DUP2 SUB PUSH1 0x20 DUP4 ADD MSTORE PUSH2 0x4CD DUP2 DUP6 PUSH2 0x470 JUMP JUMPDEST SWAP1 POP PUSH2 0x4DC PUSH1 0x40 DUP4 ADD DUP5 PUSH2 0x429 JUMP JUMPDEST SWAP5 SWAP4 POP POP POP POP JUMP JUMPDEST PUSH0 PUSH1 0x20 DUP3 ADD SWAP1 POP PUSH2 0x4F7 PUSH0 DUP4 ADD DUP5 PUSH2 0x429 JUMP JUMPDEST SWAP3 SWAP2 POP POP JUMP JUMPDEST PUSH0 PUSH0 REVERT JUMPDEST PUSH0 PUSH0 REVERT JUMPDEST PUSH32 0x4E487B7100000000000000000000000000000000000000000000000000000000 PUSH0 MSTORE PUSH1 0x41 PUSH1 0x4 MSTORE PUSH1 0x24 PUSH0 REVERT JUMPDEST PUSH2 0x53B DUP3 PUSH2 0x460 JUMP JUMPDEST DUP2 ADD DUP2 DUP2 LT PUSH8 0xFFFFFFFFFFFFFFFF DUP3 GT OR ISZERO PUSH2 0x55A JUMPI PUSH2 0x559 PUSH2 0x505 JUMP JUMPDEST JUMPDEST DUP1 PUSH1 0x40 MSTORE POP POP POP JUMP JUMPDEST PUSH0 PUSH2 0x56C PUSH2 0x3BA JUMP JUMPDEST SWAP1 POP PUSH2 0x578 DUP3 DUP3 PUSH2 0x532 JUMP JUMPDEST SWAP2 SWAP1 POP JUMP JUMPDEST PUSH0 PUSH8 0xFFFFFFFFFFFFFFFF DUP3 GT ISZERO PUSH2 0x597 JUMPI PUSH2 0x596 PUSH2 0x505 JUMP JUMPDEST JUMPDEST PUSH2 0x5A0 DUP3 PUSH2 0x460 JUMP JUMPDEST SWAP1 POP PUSH1 0x20 DUP2 ADD SWAP1 POP SWAP2 SWAP1 POP JUMP JUMPDEST DUP3 DUP2 DUP4 CALLDATACOPY PUSH0 DUP4 DUP4 ADD MSTORE POP POP POP JUMP JUMPDEST PUSH0 PUSH2 0x5CD PUSH2 0x5C8 DUP5 PUSH2 0x57D JUMP JUMPDEST PUSH2 0x563 JUMP JUMPDEST SWAP1 POP DUP3 DUP2 MSTORE PUSH1 0x20 DUP2 ADD DUP5 DUP5 DUP5 ADD GT ISZERO PUSH2 0x5E9 JUMPI PUSH2 0x5E8 PUSH2 0x501 JUMP JUMPDEST JUMPDEST PUSH2 0x5F4 DUP5 DUP3 DUP6 PUSH2 0x5AD JUMP JUMPDEST POP SWAP4 SWAP3 POP POP POP JUMP JUMPDEST PUSH0 DUP3 PUSH1 0x1F DUP4 ADD SLT PUSH2 0x610 JUMPI PUSH2 0x60F PUSH2 0x4FD JUMP JUMPDEST JUMPDEST DUP2 CALLDATALOAD PUSH2 0x620 DUP5 DUP3 PUSH1 0x20 DUP7 ADD PUSH2 0x5BB JUMP JUMPDEST SWAP2 POP POP SWAP3 SWAP2 POP POP JUMP JUMPDEST PUSH0 PUSH0 PUSH0 PUSH1 0x60 DUP5 DUP7 SUB SLT ISZERO PUSH2 0x640 JUMPI PUSH2 0x63F PUSH2 0x3C3 JUMP JUMPDEST JUMPDEST PUSH0 PUSH2 0x64D DUP7 DUP3 DUP8 ADD PUSH2 0x3EA JUMP JUMPDEST SWAP4 POP POP PUSH1 0x20 DUP5 ADD CALLDATALOAD PUSH8 0xFFFFFFFFFFFFFFFF DUP2 GT ISZERO PUSH2 0x66E JUMPI PUSH2 0x66D PUSH2 0x3C7 JUMP JUMPDEST JUMPDEST PUSH2 0x67A DUP7 DUP3 DUP8 ADD PUSH2 0x5FC JUMP JUMPDEST SWAP3 POP POP PUSH1 0x40 PUSH2 0x68B DUP7 DUP3 DUP8 ADD PUSH2 0x3EA JUMP JUMPDEST SWAP2 POP POP SWAP3 POP SWAP3 POP SWAP3 JUMP JUMPDEST PUSH32 0x4E487B7100000000000000000000000000000000000000000000000000000000 PUSH0 MSTORE PUSH1 0x22 PUSH1 0x4 MSTORE PUSH1 0x24 PUSH0 REVERT JUMPDEST PUSH0 PUSH1 0x2 DUP3 DIV SWAP1 POP PUSH1 0x1 DUP3 AND DUP1 PUSH2 0x6D9 JUMPI PUSH1 0x7F DUP3 AND SWAP2 POP JUMPDEST PUSH1 0x20 DUP3 LT DUP2 SUB PUSH2 0x6EC JUMPI PUSH2 0x6EB PUSH2 0x695 JUMP JUMPDEST JUMPDEST POP SWAP2 SWAP1 POP JUMP JUMPDEST PUSH32 0x496E76616C696420696E64657800000000000000000000000000000000000000 PUSH0 DUP3 ADD MSTORE POP JUMP JUMPDEST PUSH0 PUSH2 0x726 PUSH1 0xD DUP4 PUSH2 0x442 JUMP JUMPDEST SWAP2 POP PUSH2 0x731 DUP3 PUSH2 0x6F2 JUMP JUMPDEST PUSH1 0x20 DUP3 ADD SWAP1 POP SWAP2 SWAP1 POP JUMP JUMPDEST PUSH0 PUSH1 0x20 DUP3 ADD SWAP1 POP DUP2 DUP2 SUB PUSH0 DUP4 ADD MSTORE PUSH2 0x753 DUP2 PUSH2 0x71A JUMP JUMPDEST SWAP1 POP SWAP2 SWAP1 POP JUMP JUMPDEST PUSH32 0x4E487B7100000000000000000000000000000000000000000000000000000000 PUSH0 MSTORE PUSH1 0x32 PUSH1 0x4 MSTORE PUSH1 0x24 PUSH0 REVERT JUMPDEST PUSH0 DUP2 SWAP1 POP DUP2 PUSH0 MSTORE PUSH1 0x20 PUSH0 KECCAK256 SWAP1 POP SWAP2 SWAP1 POP JUMP JUMPDEST PUSH0 PUSH1 0x20 PUSH1 0x1F DUP4 ADD DIV SWAP1 POP SWAP2 SWAP1 POP JUMP JUMPDEST PUSH0 DUP3 DUP3 SHL SWAP1 POP SWAP3 SWAP2 POP POP JUMP JUMPDEST PUSH0 PUSH1 0x8 DUP4 MUL PUSH2 0x7E3 PUSH32 0xFFFFFFFFFFFFFFFFFFFFFFFFFFFFFFFFFFFFFFFFFFFFFFFFFFFFFFFFFFFFFFFF DUP3 PUSH2 0x7A8 JUMP JUMPDEST PUSH2 0x7ED DUP7 DUP4 PUSH2 0x7A8 JUMP JUMPDEST SWAP6 POP DUP1 NOT DUP5 AND SWAP4 POP DUP1 DUP7 AND DUP5 OR SWAP3 POP POP POP SWAP4 SWAP3 POP POP POP JUMP JUMPDEST PUSH0 DUP2 SWAP1 POP SWAP2 SWAP1 POP JUMP JUMPDEST PUSH0 PUSH2 0x828 PUSH2 0x823 PUSH2 0x81E DUP5 PUSH2 0x3CB JUMP JUMPDEST PUSH2 0x805 JUMP JUMPDEST PUSH2 0x3CB JUMP JUMPDEST SWAP1 POP SWAP2 SWAP1 POP JUMP JUMPDEST PUSH0 DUP2 SWAP1 POP SWAP2 SWAP1 POP JUMP JUMPDEST PUSH2 0x841 DUP4 PUSH2 0x80E JUMP JUMPDEST PUSH2 0x855 PUSH2 0x84D DUP3 PUSH2 0x82F JUMP JUMPDEST DUP5 DUP5 SLOAD PUSH2 0x7B4 JUMP JUMPDEST DUP3 SSTORE POP POP POP POP JUMP JUMPDEST PUSH0 PUSH0 SWAP1 POP SWAP1 JUMP JUMPDEST PUSH2 0x86C PUSH2 0x85D JUMP JUMPDEST PUSH2 0x877 DUP2 DUP5 DUP5 PUSH2 0x838 JUMP JUMPDEST POP POP POP JUMP JUMPDEST JUMPDEST DUP2 DUP2 LT ISZERO PUSH2 0x89A JUMPI PUSH2 0x88F PUSH0 DUP3 PUSH2 0x864 JUMP JUMPDEST PUSH1 0x1 DUP2 ADD SWAP1 POP PUSH2 0x87D JUMP JUMPDEST POP POP JUMP JUMPDEST PUSH1 0x1F DUP3 GT ISZERO PUSH2 0x8DF JUMPI PUSH2 0x8B0 DUP2 PUSH2 0x787 JUMP JUMPDEST PUSH2 0x8B9 DUP5 PUSH2 0x799 JUMP JUMPDEST DUP2 ADD PUSH1 0x20 DUP6 LT ISZERO PUSH2 0x8C8 JUMPI DUP2 SWAP1 POP JUMPDEST PUSH2 0x8DC PUSH2 0x8D4 DUP6 PUSH2 0x799 JUMP JUMPDEST DUP4 ADD DUP3 PUSH2 0x87C JUMP JUMPDEST POP POP JUMPDEST POP POP POP JUMP JUMPDEST PUSH0 DUP3 DUP3 SHR SWAP1 POP SWAP3 SWAP2 POP POP JUMP JUMPDEST PUSH0 PUSH2 0x8FF PUSH0 NOT DUP5 PUSH1 0x8 MUL PUSH2 0x8E4 JUMP JUMPDEST NOT DUP1 DUP4 AND SWAP2 POP POP SWAP3 SWAP2 POP POP JUMP JUMPDEST PUSH0 PUSH2 0x917 DUP4 DUP4 PUSH2 0x8F0 JUMP JUMPDEST SWAP2 POP DUP3 PUSH1 0x2 MUL DUP3 OR SWAP1 POP SWAP3 SWAP2 POP POP JUMP JUMPDEST PUSH2 0x930 DUP3 PUSH2 0x438 JUMP JUMPDEST PUSH8 0xFFFFFFFFFFFFFFFF DUP2 GT ISZERO PUSH2 0x949 JUMPI PUSH2 0x948 PUSH2 0x505 JUMP JUMPDEST JUMPDEST PUSH2 0x953 DUP3 SLOAD PUSH2 0x6C2 JUMP JUMPDEST PUSH2 0x95E DUP3 DUP3 DUP6 PUSH2 0x89E JUMP JUMPDEST PUSH0 PUSH1 0x20 SWAP1 POP PUSH1 0x1F DUP4 GT PUSH1 0x1 DUP2 EQ PUSH2 0x98F JUMPI PUSH0 DUP5 ISZERO PUSH2 0x97D JUMPI DUP3 DUP8 ADD MLOAD SWAP1 POP JUMPDEST PUSH2 0x987 DUP6 DUP3 PUSH2 0x90C JUMP JUMPDEST DUP7 SSTORE POP PUSH2 0x9EE JUMP JUMPDEST PUSH1 0x1F NOT DUP5 AND PUSH2 0x99D DUP7 PUSH2 0x787 JUMP JUMPDEST PUSH0 JUMPDEST DUP3 DUP2 LT ISZERO PUSH2 0x9C4 JUMPI DUP5 DUP10 ADD MLOAD DUP3 SSTORE PUSH1 0x1 DUP3 ADD SWAP2 POP PUSH1 0x20 DUP6 ADD SWAP5 POP PUSH1 0x20 DUP2 ADD SWAP1 POP PUSH2 0x99F JUMP JUMPDEST DUP7 DUP4 LT ISZERO PUSH2 0x9E1 JUMPI DUP5 DUP10 ADD MLOAD PUSH2 0x9DD PUSH1 0x1F DUP10 AND DUP3 PUSH2 0x8F0 JUMP JUMPDEST DUP4 SSTORE POP JUMPDEST PUSH1 0x1 PUSH1 0x2 DUP9 MUL ADD DUP9 SSTORE POP POP POP JUMPDEST POP POP POP POP POP POP JUMP INVALID LOG2 PUSH5 0x6970667358 0x22 SLT KECCAK256 DUP15 CALLDATASIZE PUSH29 0x152039E5EAD867B754540482436D960382321DFF9ABEB7DE517FA6F15E PUSH5 0x736F6C6343 STOP ADDMOD 0x1E STOP CALLER "
				},
				"gasEstimates": {
					"creation": {
						"codeDepositCost": "520800",
						"executionCost": "554",
						"totalCost": "521354"
					},
					"external": {
						"": "150",
						"addStudent(uint256,string,uint256)": "infinite",
						"getStudent(uint256)": "infinite",
						"getTotalStudents()": "2439",
						"students(uint256)": "infinite"
					}
				},
				"methodIdentifiers": {
					"addStudent(uint256,string,uint256)": "c1bea1db",
					"getStudent(uint256)": "642f9163",
					"getTotalStudents()": "28bcb51a",
					"students(uint256)": "06ead22e"
				}
			},
			"storageLayout": {
				"storage": [
					{
						"astId": 12,
						"contract": "StudentData.sol:StudentData",
						"label": "students",
						"offset": 0,
						"slot": "0",
						"type": "t_array(t_struct(Student)8_storage)dyn_storage"
					}
				],
				"types": {
					"t_array(t_struct(Student)8_storage)dyn_storage": {
						"base": "t_struct(Student)8_storage",
						"encoding": "dynamic_array",
						"label": "struct StudentData.Student[]",
						"numberOfBytes": "32"
					},
					"t_string_storage": {
						"encoding": "bytes",
						"label": "string",
						"numberOfBytes": "32"
					},
					"t_struct(Student)8_storage": {
						"encoding": "inplace",
						"label": "struct StudentData.Student",
						"members": [
							{
								"astId": 3,
								"contract": "StudentData.sol:StudentData",
								"label": "rollNo",
								"offset": 0,
								"slot": "0",
								"type": "t_uint256"
							},
							{
								"astId": 5,
								"contract": "StudentData.sol:StudentData",
								"label": "name",
								"offset": 0,
								"slot": "1",
								"type": "t_string_storage"
							},
							{
								"astId": 7,
								"contract": "StudentData.sol:StudentData",
								"label": "marks",
								"offset": 0,
								"slot": "2",
								"type": "t_uint256"
							}
						],
						"numberOfBytes": "96"
					},
					"t_uint256": {
						"encoding": "inplace",
						"label": "uint256",
						"numberOfBytes": "32"
					}
				}
			},
			"userdoc": {
				"kind": "user",
				"methods": {},
				"version": 1
			}
		}
	}
}